{
  "contractName": "Logger",
  "sourceName": "contracts/Logger.sol",
  "abi": [
    {
      "anonymous": false,
      "inputs": [
        {
          "indexed": true,
          "internalType": "uint256",
          "name": "_index",
          "type": "uint256"
        },
        {
          "indexed": false,
          "internalType": "bytes8[]",
          "name": "_data",
          "type": "bytes8[]"
        },
        {
          "indexed": true,
          "internalType": "bytes32",
          "name": "_root",
          "type": "bytes32"
        },
        {
          "indexed": false,
          "internalType": "uint64",
          "name": "_log2Size",
          "type": "uint64"
        }
      ],
      "name": "MerkleRootCalculatedFromData",
      "type": "event"
    },
    {
      "anonymous": false,
      "inputs": [
        {
          "indexed": true,
          "internalType": "uint256",
          "name": "_index",
          "type": "uint256"
        },
        {
          "indexed": false,
          "internalType": "uint256[]",
          "name": "_indices",
          "type": "uint256[]"
        },
        {
          "indexed": true,
          "internalType": "bytes32",
          "name": "_root",
          "type": "bytes32"
        },
        {
          "indexed": false,
          "internalType": "uint64",
          "name": "_log2Size",
          "type": "uint64"
        }
      ],
      "name": "MerkleRootCalculatedFromHistory",
      "type": "event"
    },
    {
      "inputs": [
        {
          "internalType": "uint64",
          "name": "_log2Size",
          "type": "uint64"
        },
        {
          "internalType": "bytes8[]",
          "name": "_data",
          "type": "bytes8[]"
        }
      ],
      "name": "calculateMerkleRootFromData",
      "outputs": [
        {
          "internalType": "bytes32",
          "name": "",
          "type": "bytes32"
        }
      ],
      "stateMutability": "nonpayable",
      "type": "function"
    },
    {
      "inputs": [
        {
          "internalType": "uint64",
          "name": "_log2Size",
          "type": "uint64"
        },
        {
          "internalType": "uint256[]",
          "name": "_indices",
          "type": "uint256[]"
        }
      ],
      "name": "calculateMerkleRootFromHistory",
      "outputs": [
        {
          "internalType": "bytes32",
          "name": "",
          "type": "bytes32"
        }
      ],
      "stateMutability": "nonpayable",
      "type": "function"
    },
    {
      "inputs": [],
      "name": "currentIndex",
      "outputs": [
        {
          "internalType": "uint256",
          "name": "",
          "type": "uint256"
        }
      ],
      "stateMutability": "view",
      "type": "function"
    },
    {
      "inputs": [
        {
          "internalType": "bytes32",
          "name": "_root",
          "type": "bytes32"
        }
      ],
      "name": "getLogIndex",
      "outputs": [
        {
          "internalType": "uint256",
          "name": "",
          "type": "uint256"
        }
      ],
      "stateMutability": "view",
      "type": "function"
    },
    {
      "inputs": [
        {
          "internalType": "uint256",
          "name": "_index",
          "type": "uint256"
        }
      ],
      "name": "getLogRoot",
      "outputs": [
        {
          "internalType": "bytes32",
          "name": "",
          "type": "bytes32"
        }
      ],
      "stateMutability": "view",
      "type": "function"
    },
    {
      "inputs": [
        {
          "internalType": "bytes32",
          "name": "_root",
          "type": "bytes32"
        },
        {
          "internalType": "uint64",
          "name": "_log2Size",
          "type": "uint64"
        }
      ],
      "name": "isLogAvailable",
      "outputs": [
        {
          "internalType": "bool",
          "name": "",
          "type": "bool"
        }
      ],
      "stateMutability": "view",
      "type": "function"
    }
  ],
  "bytecode": "0x6080604052600060045534801561001557600080fd5b5061114e806100256000396000f3fe608060405234801561001057600080fd5b50600436106100625760003560e01c806326987b60146100675780634891ea36146100835780636a22e5fd14610096578063833459bc146100a9578063a1ddff26146100c9578063adaea8dc146100dc575b600080fd5b61007060045481565b6040519081526020015b60405180910390f35b610070610091366004610c6b565b6100ff565b6100706100a4366004610d2a565b610620565b6100706100b7366004610d2a565b60009081526001602052604090205490565b6100706100d7366004610d43565b610695565b6100ef6100ea366004610dd7565b610b77565b604051901515815260200161007a565b60006003836001600160401b031610156101605760405162461bcd60e51b815260206004820152601b60248201527f48617320746f206265206174206c65617374206f6e6520776f7264000000000060448201526064015b60405180910390fd5b6040836001600160401b031611156101cb5760405162461bcd60e51b815260206004820152602860248201527f43616e6e6f7420626520626967676572207468616e20746865206d616368696e604482015267329034ba39b2b63360c11b6064820152608401610157565b600082511161021c5760405162461bcd60e51b815260206004820152601f60248201527f54686520696e7075742061727261792063616e6e6f7420626520656d707479006044820152606401610157565b81600061022a600386610e19565b610235906002610f5e565b6001600160401b0316905083518110156102ab5760405162461bcd60e51b815260206004820152603160248201527f54686520696e70757420617272617920697320626967676572207468616e206460448201527065636c61726564206c6f67322073697a6560781b6064820152608401610157565b808451146103ab576000816001600160401b038111156102cd576102cd610c02565b6040519080825280602002602001820160405280156102f6578160200160208202803683370190505b50905060005b855181101561035a5785818151811061031757610317610f7e565b602002602001015182828151811061033157610331610f7e565b6001600160c01b03199092166020928302919091019091015261035381610f94565b90506102fc565b5084515b81518110156103a757600060c01b82828151811061037e5761037e610f7e565b6001600160c01b0319909216602092830291909101909101526103a081610f94565b905061035e565b5091505b600082516001600160401b038111156103c6576103c6610c02565b6040519080825280602002602001820160405280156103ef578160200160208202803683370190505b50905060005b835181101561047b5783818151811061041057610410610f7e565b602002602001015160405160200161043891906001600160c01b031991909116815260080190565b6040516020818303038152906040528051906020012082828151811061046057610460610f7e565b602090810291909101015261047481610f94565b90506103f5565b506040516310561d5760e31b815260009073__$b74006f35813788fe91a00f0a260b7dae4$__906382b0eab8906104b6908590600401610fad565b602060405180830381865af41580156104d3573d6000803e3d6000fd5b505050506040513d601f19601f820116820180604052508101906104f79190610ff1565b6040805180820182526001600160401b038a81168252602082018481526003805460018101825560009190915292517fc2575a0e9e593c00f959f8c92f12db2869c3395a3b0502d05e2516446f71f85b6002909402938401805467ffffffffffffffff19169190931617909155517fc2575a0e9e593c00f959f8c92f12db2869c3395a3b0502d05e2516446f71f85c90910155600454905191925082917f5fdb13b5e276437af6afb5d6bede9cf90cb8cd2f13c93048434bf9fcf7284622906105c3908a908c9061100a565b60405180910390a3600081815260208181526040808320805460ff191660019081179091556004805491845282852082905590845260029092528220839055805490919061061090610f94565b9091555093505050505b92915050565b600060045482106106825760405162461bcd60e51b815260206004820152602660248201527f54686520696e64657820646f65736e277420657869737420696e2074686520686044820152656973746f727960d01b6064820152608401610157565b5060009081526002602052604090205490565b805160405163d82ae4b160e01b815260009173__$b74006f35813788fe91a00f0a260b7dae4$__9163d82ae4b1916106d39160040190815260200190565b602060405180830381865af41580156106f0573d6000803e3d6000fd5b505050506040513d601f19601f820116820180604052508101906107149190611068565b6107795760405162461bcd60e51b815260206004820152603060248201527f54686520696e707574206172726179206d75737420636f6e7461696e20706f7760448201526f6572206f66203220656c656d656e747360801b6064820152608401610157565b60005b82518110156108bc5782818151811061079757610797610f7e565b6020026020010151600454116107fe5760405162461bcd60e51b815260206004820152602660248201527f54686520696e646578206f6620686973746f727920646f65736e2774206578696044820152651cdd081e595d60d21b6064820152608401610157565b600383828151811061081257610812610f7e565b60200260200101518154811061082a5761082a610f7e565b60009182526020909120600290910201546001600160401b038581169116146108ac5760405162461bcd60e51b815260206004820152602e60248201527f5468652076616c7565206f66206c6f673253697a6520646f65736e2774206d6160448201526d74636820696e20686973746f727960901b6064820152608401610157565b6108b581610f94565b905061077c565b50600082516001600160401b038111156108d8576108d8610c02565b604051908082528060200260200182016040528015610901578160200160208202803683370190505b50905060005b835181101561097b57600384828151811061092457610924610f7e565b60200260200101518154811061093c5761093c610f7e565b90600052602060002090600202016001015482828151811061096057610960610f7e565b602090810291909101015261097481610f94565b9050610907565b506040516310561d5760e31b815260009073__$b74006f35813788fe91a00f0a260b7dae4$__906382b0eab8906109b6908590600401610fad565b602060405180830381865af41580156109d3573d6000803e3d6000fd5b505050506040513d601f19601f820116820180604052508101906109f79190610ff1565b9050600073__$b74006f35813788fe91a00f0a260b7dae4$__6306c8e54b86516040518263ffffffff1660e01b8152600401610a3591815260200190565b602060405180830381865af4158015610a52573d6000803e3d6000fd5b505050506040513d601f19601f82011682018060405250810190610a769190611091565b60ff169050600360405180604001604052808884610a9491906110b4565b6001600160401b03908116825260209182018690528354600180820186556000958652948390208451600290920201805467ffffffffffffffff19169190921617815591015191015560045482907f89cefba87d8a8fa0db60ec3681079c7740b90465999c62cd7c00d65d3c9e57a987610b0e8a866110b4565b604051610b1c9291906110df565b60405180910390a3600082815260208181526040808320805460ff1916600190811790915560048054918452828520829055908452600290925282208490558054909190610b6990610f94565b909155509095945050505050565b60008281526020819052604081205460ff1615610bdd57600083815260016020526040902054600380546001600160401b03851692908110610bbb57610bbb610f7e565b60009182526020909120600290910201546001600160401b031614905061061a565b50600092915050565b80356001600160401b0381168114610bfd57600080fd5b919050565b634e487b7160e01b600052604160045260246000fd5b604051601f8201601f191681016001600160401b0381118282101715610c4057610c40610c02565b604052919050565b60006001600160401b03821115610c6157610c61610c02565b5060051b60200190565b60008060408385031215610c7e57600080fd5b610c8783610be6565b91506020808401356001600160401b03811115610ca357600080fd5b8401601f81018613610cb457600080fd5b8035610cc7610cc282610c48565b610c18565b81815260059190911b82018301908381019088831115610ce657600080fd5b928401925b82841015610d1b5783356001600160c01b031981168114610d0c5760008081fd5b82529284019290840190610ceb565b80955050505050509250929050565b600060208284031215610d3c57600080fd5b5035919050565b60008060408385031215610d5657600080fd5b610d5f83610be6565b91506020808401356001600160401b03811115610d7b57600080fd5b8401601f81018613610d8c57600080fd5b8035610d9a610cc282610c48565b81815260059190911b82018301908381019088831115610db957600080fd5b928401925b82841015610d1b57833582529284019290840190610dbe565b60008060408385031215610dea57600080fd5b82359150610dfa60208401610be6565b90509250929050565b634e487b7160e01b600052601160045260246000fd5b60006001600160401b0383811690831681811015610e3957610e39610e03565b039392505050565b600181815b80851115610e8157816001600160401b0304821115610e6757610e67610e03565b80851615610e7457918102915b93841c9390800290610e46565b509250929050565b600082610e985750600161061a565b81610ea55750600061061a565b8160018114610ebb5760028114610ec557610ef9565b600191505061061a565b60ff841115610ed657610ed6610e03565b6001841b91506001600160401b03821115610ef357610ef3610e03565b5061061a565b5060208310610133831016604e8410600b8410161715610f33575081810a6001600160401b03811115610f2e57610f2e610e03565b61061a565b610f3d8383610e41565b806001600160401b0304821115610f5657610f56610e03565b029392505050565b60006001600160401b03610f76818516828516610e89565b949350505050565b634e487b7160e01b600052603260045260246000fd5b600060018201610fa657610fa6610e03565b5060010190565b6020808252825182820181905260009190848201906040850190845b81811015610fe557835183529284019291840191600101610fc9565b50909695505050505050565b60006020828403121561100357600080fd5b5051919050565b604080825283519082018190526000906020906060840190828701845b8281101561104d5781516001600160c01b03191684529284019290840190600101611027565b5050506001600160401b039490941692019190915250919050565b60006020828403121561107a57600080fd5b8151801515811461108a57600080fd5b9392505050565b6000602082840312156110a357600080fd5b815160ff8116811461108a57600080fd5b60006001600160401b038083168185168083038211156110d6576110d6610e03565b01949350505050565b604080825283519082018190526000906020906060840190828701845b8281101561104d578151845292840192908401906001016110fc56fea2646970667358221220f7a876d4cfece5eddf6cedb9d1c12dc60b8accf2615040f34d22ec23448ba65464736f6c634300080f0033",
  "linkReferences": {
    "@cartesi/util/contracts/MerkleV3.sol": {
      "Merkle": [
        {
          "length": 20,
          "start": 1203
        },
        {
          "length": 20,
          "start": 1742
        },
        {
          "length": 20,
          "start": 2483
        },
        {
          "length": 20,
          "start": 2594
        }
      ]
    }
  },
  "deployedLinkReferences": {
    "@cartesi/util/contracts/MerkleV3.sol": {
      "Merkle": [
        {
          "length": 20,
          "start": 1166
        },
        {
          "length": 20,
          "start": 1705
        },
        {
          "length": 20,
          "start": 2446
        },
        {
          "length": 20,
          "start": 2557
        }
      ]
    }
  },
  "devdoc": {
    "author": "Stephen Chen",
    "details": "This contract is not well-tested yet.",
    "kind": "dev",
    "methods": {},
    "title": "Logger",
    "version": 1
  },
  "evm": {
    "bytecode": {
      "linkReferences": {
        "@cartesi/util/contracts/MerkleV3.sol": {
          "Merkle": [
            {
              "length": 20,
              "start": 1203
            },
            {
              "length": 20,
              "start": 1742
            },
            {
              "length": 20,
              "start": 2483
            },
            {
              "length": 20,
              "start": 2594
            }
          ]
        }
      },
      "opcodes": "PUSH1 0x80 PUSH1 0x40 MSTORE PUSH1 0x0 PUSH1 0x4 SSTORE CALLVALUE DUP1 ISZERO PUSH2 0x15 JUMPI PUSH1 0x0 DUP1 REVERT JUMPDEST POP PUSH2 0x114E DUP1 PUSH2 0x25 PUSH1 0x0 CODECOPY PUSH1 0x0 RETURN INVALID PUSH1 0x80 PUSH1 0x40 MSTORE CALLVALUE DUP1 ISZERO PUSH2 0x10 JUMPI PUSH1 0x0 DUP1 REVERT JUMPDEST POP PUSH1 0x4 CALLDATASIZE LT PUSH2 0x62 JUMPI PUSH1 0x0 CALLDATALOAD PUSH1 0xE0 SHR DUP1 PUSH4 0x26987B60 EQ PUSH2 0x67 JUMPI DUP1 PUSH4 0x4891EA36 EQ PUSH2 0x83 JUMPI DUP1 PUSH4 0x6A22E5FD EQ PUSH2 0x96 JUMPI DUP1 PUSH4 0x833459BC EQ PUSH2 0xA9 JUMPI DUP1 PUSH4 0xA1DDFF26 EQ PUSH2 0xC9 JUMPI DUP1 PUSH4 0xADAEA8DC EQ PUSH2 0xDC JUMPI JUMPDEST PUSH1 0x0 DUP1 REVERT JUMPDEST PUSH2 0x70 PUSH1 0x4 SLOAD DUP2 JUMP JUMPDEST PUSH1 0x40 MLOAD SWAP1 DUP2 MSTORE PUSH1 0x20 ADD JUMPDEST PUSH1 0x40 MLOAD DUP1 SWAP2 SUB SWAP1 RETURN JUMPDEST PUSH2 0x70 PUSH2 0x91 CALLDATASIZE PUSH1 0x4 PUSH2 0xC6B JUMP JUMPDEST PUSH2 0xFF JUMP JUMPDEST PUSH2 0x70 PUSH2 0xA4 CALLDATASIZE PUSH1 0x4 PUSH2 0xD2A JUMP JUMPDEST PUSH2 0x620 JUMP JUMPDEST PUSH2 0x70 PUSH2 0xB7 CALLDATASIZE PUSH1 0x4 PUSH2 0xD2A JUMP JUMPDEST PUSH1 0x0 SWAP1 DUP2 MSTORE PUSH1 0x1 PUSH1 0x20 MSTORE PUSH1 0x40 SWAP1 KECCAK256 SLOAD SWAP1 JUMP JUMPDEST PUSH2 0x70 PUSH2 0xD7 CALLDATASIZE PUSH1 0x4 PUSH2 0xD43 JUMP JUMPDEST PUSH2 0x695 JUMP JUMPDEST PUSH2 0xEF PUSH2 0xEA CALLDATASIZE PUSH1 0x4 PUSH2 0xDD7 JUMP JUMPDEST PUSH2 0xB77 JUMP JUMPDEST PUSH1 0x40 MLOAD SWAP1 ISZERO ISZERO DUP2 MSTORE PUSH1 0x20 ADD PUSH2 0x7A JUMP JUMPDEST PUSH1 0x0 PUSH1 0x3 DUP4 PUSH1 0x1 PUSH1 0x1 PUSH1 0x40 SHL SUB AND LT ISZERO PUSH2 0x160 JUMPI PUSH1 0x40 MLOAD PUSH3 0x461BCD PUSH1 0xE5 SHL DUP2 MSTORE PUSH1 0x20 PUSH1 0x4 DUP3 ADD MSTORE PUSH1 0x1B PUSH1 0x24 DUP3 ADD MSTORE PUSH32 0x48617320746F206265206174206C65617374206F6E6520776F72640000000000 PUSH1 0x44 DUP3 ADD MSTORE PUSH1 0x64 ADD JUMPDEST PUSH1 0x40 MLOAD DUP1 SWAP2 SUB SWAP1 REVERT JUMPDEST PUSH1 0x40 DUP4 PUSH1 0x1 PUSH1 0x1 PUSH1 0x40 SHL SUB AND GT ISZERO PUSH2 0x1CB JUMPI PUSH1 0x40 MLOAD PUSH3 0x461BCD PUSH1 0xE5 SHL DUP2 MSTORE PUSH1 0x20 PUSH1 0x4 DUP3 ADD MSTORE PUSH1 0x28 PUSH1 0x24 DUP3 ADD MSTORE PUSH32 0x43616E6E6F7420626520626967676572207468616E20746865206D616368696E PUSH1 0x44 DUP3 ADD MSTORE PUSH8 0x329034BA39B2B633 PUSH1 0xC1 SHL PUSH1 0x64 DUP3 ADD MSTORE PUSH1 0x84 ADD PUSH2 0x157 JUMP JUMPDEST PUSH1 0x0 DUP3 MLOAD GT PUSH2 0x21C JUMPI PUSH1 0x40 MLOAD PUSH3 0x461BCD PUSH1 0xE5 SHL DUP2 MSTORE PUSH1 0x20 PUSH1 0x4 DUP3 ADD MSTORE PUSH1 0x1F PUSH1 0x24 DUP3 ADD MSTORE PUSH32 0x54686520696E7075742061727261792063616E6E6F7420626520656D70747900 PUSH1 0x44 DUP3 ADD MSTORE PUSH1 0x64 ADD PUSH2 0x157 JUMP JUMPDEST DUP2 PUSH1 0x0 PUSH2 0x22A PUSH1 0x3 DUP7 PUSH2 0xE19 JUMP JUMPDEST PUSH2 0x235 SWAP1 PUSH1 0x2 PUSH2 0xF5E JUMP JUMPDEST PUSH1 0x1 PUSH1 0x1 PUSH1 0x40 SHL SUB AND SWAP1 POP DUP4 MLOAD DUP2 LT ISZERO PUSH2 0x2AB JUMPI PUSH1 0x40 MLOAD PUSH3 0x461BCD PUSH1 0xE5 SHL DUP2 MSTORE PUSH1 0x20 PUSH1 0x4 DUP3 ADD MSTORE PUSH1 0x31 PUSH1 0x24 DUP3 ADD MSTORE PUSH32 0x54686520696E70757420617272617920697320626967676572207468616E2064 PUSH1 0x44 DUP3 ADD MSTORE PUSH17 0x65636C61726564206C6F67322073697A65 PUSH1 0x78 SHL PUSH1 0x64 DUP3 ADD MSTORE PUSH1 0x84 ADD PUSH2 0x157 JUMP JUMPDEST DUP1 DUP5 MLOAD EQ PUSH2 0x3AB JUMPI PUSH1 0x0 DUP2 PUSH1 0x1 PUSH1 0x1 PUSH1 0x40 SHL SUB DUP2 GT ISZERO PUSH2 0x2CD JUMPI PUSH2 0x2CD PUSH2 0xC02 JUMP JUMPDEST PUSH1 0x40 MLOAD SWAP1 DUP1 DUP3 MSTORE DUP1 PUSH1 0x20 MUL PUSH1 0x20 ADD DUP3 ADD PUSH1 0x40 MSTORE DUP1 ISZERO PUSH2 0x2F6 JUMPI DUP2 PUSH1 0x20 ADD PUSH1 0x20 DUP3 MUL DUP1 CALLDATASIZE DUP4 CALLDATACOPY ADD SWAP1 POP JUMPDEST POP SWAP1 POP PUSH1 0x0 JUMPDEST DUP6 MLOAD DUP2 LT ISZERO PUSH2 0x35A JUMPI DUP6 DUP2 DUP2 MLOAD DUP2 LT PUSH2 0x317 JUMPI PUSH2 0x317 PUSH2 0xF7E JUMP JUMPDEST PUSH1 0x20 MUL PUSH1 0x20 ADD ADD MLOAD DUP3 DUP3 DUP2 MLOAD DUP2 LT PUSH2 0x331 JUMPI PUSH2 0x331 PUSH2 0xF7E JUMP JUMPDEST PUSH1 0x1 PUSH1 0x1 PUSH1 0xC0 SHL SUB NOT SWAP1 SWAP3 AND PUSH1 0x20 SWAP3 DUP4 MUL SWAP2 SWAP1 SWAP2 ADD SWAP1 SWAP2 ADD MSTORE PUSH2 0x353 DUP2 PUSH2 0xF94 JUMP JUMPDEST SWAP1 POP PUSH2 0x2FC JUMP JUMPDEST POP DUP5 MLOAD JUMPDEST DUP2 MLOAD DUP2 LT ISZERO PUSH2 0x3A7 JUMPI PUSH1 0x0 PUSH1 0xC0 SHL DUP3 DUP3 DUP2 MLOAD DUP2 LT PUSH2 0x37E JUMPI PUSH2 0x37E PUSH2 0xF7E JUMP JUMPDEST PUSH1 0x1 PUSH1 0x1 PUSH1 0xC0 SHL SUB NOT SWAP1 SWAP3 AND PUSH1 0x20 SWAP3 DUP4 MUL SWAP2 SWAP1 SWAP2 ADD SWAP1 SWAP2 ADD MSTORE PUSH2 0x3A0 DUP2 PUSH2 0xF94 JUMP JUMPDEST SWAP1 POP PUSH2 0x35E JUMP JUMPDEST POP SWAP2 POP JUMPDEST PUSH1 0x0 DUP3 MLOAD PUSH1 0x1 PUSH1 0x1 PUSH1 0x40 SHL SUB DUP2 GT ISZERO PUSH2 0x3C6 JUMPI PUSH2 0x3C6 PUSH2 0xC02 JUMP JUMPDEST PUSH1 0x40 MLOAD SWAP1 DUP1 DUP3 MSTORE DUP1 PUSH1 0x20 MUL PUSH1 0x20 ADD DUP3 ADD PUSH1 0x40 MSTORE DUP1 ISZERO PUSH2 0x3EF JUMPI DUP2 PUSH1 0x20 ADD PUSH1 0x20 DUP3 MUL DUP1 CALLDATASIZE DUP4 CALLDATACOPY ADD SWAP1 POP JUMPDEST POP SWAP1 POP PUSH1 0x0 JUMPDEST DUP4 MLOAD DUP2 LT ISZERO PUSH2 0x47B JUMPI DUP4 DUP2 DUP2 MLOAD DUP2 LT PUSH2 0x410 JUMPI PUSH2 0x410 PUSH2 0xF7E JUMP JUMPDEST PUSH1 0x20 MUL PUSH1 0x20 ADD ADD MLOAD PUSH1 0x40 MLOAD PUSH1 0x20 ADD PUSH2 0x438 SWAP2 SWAP1 PUSH1 0x1 PUSH1 0x1 PUSH1 0xC0 SHL SUB NOT SWAP2 SWAP1 SWAP2 AND DUP2 MSTORE PUSH1 0x8 ADD SWAP1 JUMP JUMPDEST PUSH1 0x40 MLOAD PUSH1 0x20 DUP2 DUP4 SUB SUB DUP2 MSTORE SWAP1 PUSH1 0x40 MSTORE DUP1 MLOAD SWAP1 PUSH1 0x20 ADD KECCAK256 DUP3 DUP3 DUP2 MLOAD DUP2 LT PUSH2 0x460 JUMPI PUSH2 0x460 PUSH2 0xF7E JUMP JUMPDEST PUSH1 0x20 SWAP1 DUP2 MUL SWAP2 SWAP1 SWAP2 ADD ADD MSTORE PUSH2 0x474 DUP2 PUSH2 0xF94 JUMP JUMPDEST SWAP1 POP PUSH2 0x3F5 JUMP JUMPDEST POP PUSH1 0x40 MLOAD PUSH4 0x10561D57 PUSH1 0xE3 SHL DUP2 MSTORE PUSH1 0x0 SWAP1 PUSH20 0x0 SWAP1 PUSH4 0x82B0EAB8 SWAP1 PUSH2 0x4B6 SWAP1 DUP6 SWAP1 PUSH1 0x4 ADD PUSH2 0xFAD JUMP JUMPDEST PUSH1 0x20 PUSH1 0x40 MLOAD DUP1 DUP4 SUB DUP2 DUP7 GAS DELEGATECALL ISZERO DUP1 ISZERO PUSH2 0x4D3 JUMPI RETURNDATASIZE PUSH1 0x0 DUP1 RETURNDATACOPY RETURNDATASIZE PUSH1 0x0 REVERT JUMPDEST POP POP POP POP PUSH1 0x40 MLOAD RETURNDATASIZE PUSH1 0x1F NOT PUSH1 0x1F DUP3 ADD AND DUP3 ADD DUP1 PUSH1 0x40 MSTORE POP DUP2 ADD SWAP1 PUSH2 0x4F7 SWAP2 SWAP1 PUSH2 0xFF1 JUMP JUMPDEST PUSH1 0x40 DUP1 MLOAD DUP1 DUP3 ADD DUP3 MSTORE PUSH1 0x1 PUSH1 0x1 PUSH1 0x40 SHL SUB DUP11 DUP2 AND DUP3 MSTORE PUSH1 0x20 DUP3 ADD DUP5 DUP2 MSTORE PUSH1 0x3 DUP1 SLOAD PUSH1 0x1 DUP2 ADD DUP3 SSTORE PUSH1 0x0 SWAP2 SWAP1 SWAP2 MSTORE SWAP3 MLOAD PUSH32 0xC2575A0E9E593C00F959F8C92F12DB2869C3395A3B0502D05E2516446F71F85B PUSH1 0x2 SWAP1 SWAP5 MUL SWAP4 DUP5 ADD DUP1 SLOAD PUSH8 0xFFFFFFFFFFFFFFFF NOT AND SWAP2 SWAP1 SWAP4 AND OR SWAP1 SWAP2 SSTORE MLOAD PUSH32 0xC2575A0E9E593C00F959F8C92F12DB2869C3395A3B0502D05E2516446F71F85C SWAP1 SWAP2 ADD SSTORE PUSH1 0x4 SLOAD SWAP1 MLOAD SWAP2 SWAP3 POP DUP3 SWAP2 PUSH32 0x5FDB13B5E276437AF6AFB5D6BEDE9CF90CB8CD2F13C93048434BF9FCF7284622 SWAP1 PUSH2 0x5C3 SWAP1 DUP11 SWAP1 DUP13 SWAP1 PUSH2 0x100A JUMP JUMPDEST PUSH1 0x40 MLOAD DUP1 SWAP2 SUB SWAP1 LOG3 PUSH1 0x0 DUP2 DUP2 MSTORE PUSH1 0x20 DUP2 DUP2 MSTORE PUSH1 0x40 DUP1 DUP4 KECCAK256 DUP1 SLOAD PUSH1 0xFF NOT AND PUSH1 0x1 SWAP1 DUP2 OR SWAP1 SWAP2 SSTORE PUSH1 0x4 DUP1 SLOAD SWAP2 DUP5 MSTORE DUP3 DUP6 KECCAK256 DUP3 SWAP1 SSTORE SWAP1 DUP5 MSTORE PUSH1 0x2 SWAP1 SWAP3 MSTORE DUP3 KECCAK256 DUP4 SWAP1 SSTORE DUP1 SLOAD SWAP1 SWAP2 SWAP1 PUSH2 0x610 SWAP1 PUSH2 0xF94 JUMP JUMPDEST SWAP1 SWAP2 SSTORE POP SWAP4 POP POP POP POP JUMPDEST SWAP3 SWAP2 POP POP JUMP JUMPDEST PUSH1 0x0 PUSH1 0x4 SLOAD DUP3 LT PUSH2 0x682 JUMPI PUSH1 0x40 MLOAD PUSH3 0x461BCD PUSH1 0xE5 SHL DUP2 MSTORE PUSH1 0x20 PUSH1 0x4 DUP3 ADD MSTORE PUSH1 0x26 PUSH1 0x24 DUP3 ADD MSTORE PUSH32 0x54686520696E64657820646F65736E277420657869737420696E207468652068 PUSH1 0x44 DUP3 ADD MSTORE PUSH6 0x6973746F7279 PUSH1 0xD0 SHL PUSH1 0x64 DUP3 ADD MSTORE PUSH1 0x84 ADD PUSH2 0x157 JUMP JUMPDEST POP PUSH1 0x0 SWAP1 DUP2 MSTORE PUSH1 0x2 PUSH1 0x20 MSTORE PUSH1 0x40 SWAP1 KECCAK256 SLOAD SWAP1 JUMP JUMPDEST DUP1 MLOAD PUSH1 0x40 MLOAD PUSH4 0xD82AE4B1 PUSH1 0xE0 SHL DUP2 MSTORE PUSH1 0x0 SWAP2 PUSH20 0x0 SWAP2 PUSH4 0xD82AE4B1 SWAP2 PUSH2 0x6D3 SWAP2 PUSH1 0x4 ADD SWAP1 DUP2 MSTORE PUSH1 0x20 ADD SWAP1 JUMP JUMPDEST PUSH1 0x20 PUSH1 0x40 MLOAD DUP1 DUP4 SUB DUP2 DUP7 GAS DELEGATECALL ISZERO DUP1 ISZERO PUSH2 0x6F0 JUMPI RETURNDATASIZE PUSH1 0x0 DUP1 RETURNDATACOPY RETURNDATASIZE PUSH1 0x0 REVERT JUMPDEST POP POP POP POP PUSH1 0x40 MLOAD RETURNDATASIZE PUSH1 0x1F NOT PUSH1 0x1F DUP3 ADD AND DUP3 ADD DUP1 PUSH1 0x40 MSTORE POP DUP2 ADD SWAP1 PUSH2 0x714 SWAP2 SWAP1 PUSH2 0x1068 JUMP JUMPDEST PUSH2 0x779 JUMPI PUSH1 0x40 MLOAD PUSH3 0x461BCD PUSH1 0xE5 SHL DUP2 MSTORE PUSH1 0x20 PUSH1 0x4 DUP3 ADD MSTORE PUSH1 0x30 PUSH1 0x24 DUP3 ADD MSTORE PUSH32 0x54686520696E707574206172726179206D75737420636F6E7461696E20706F77 PUSH1 0x44 DUP3 ADD MSTORE PUSH16 0x6572206F66203220656C656D656E7473 PUSH1 0x80 SHL PUSH1 0x64 DUP3 ADD MSTORE PUSH1 0x84 ADD PUSH2 0x157 JUMP JUMPDEST PUSH1 0x0 JUMPDEST DUP3 MLOAD DUP2 LT ISZERO PUSH2 0x8BC JUMPI DUP3 DUP2 DUP2 MLOAD DUP2 LT PUSH2 0x797 JUMPI PUSH2 0x797 PUSH2 0xF7E JUMP JUMPDEST PUSH1 0x20 MUL PUSH1 0x20 ADD ADD MLOAD PUSH1 0x4 SLOAD GT PUSH2 0x7FE JUMPI PUSH1 0x40 MLOAD PUSH3 0x461BCD PUSH1 0xE5 SHL DUP2 MSTORE PUSH1 0x20 PUSH1 0x4 DUP3 ADD MSTORE PUSH1 0x26 PUSH1 0x24 DUP3 ADD MSTORE PUSH32 0x54686520696E646578206F6620686973746F727920646F65736E277420657869 PUSH1 0x44 DUP3 ADD MSTORE PUSH6 0x1CDD081E595D PUSH1 0xD2 SHL PUSH1 0x64 DUP3 ADD MSTORE PUSH1 0x84 ADD PUSH2 0x157 JUMP JUMPDEST PUSH1 0x3 DUP4 DUP3 DUP2 MLOAD DUP2 LT PUSH2 0x812 JUMPI PUSH2 0x812 PUSH2 0xF7E JUMP JUMPDEST PUSH1 0x20 MUL PUSH1 0x20 ADD ADD MLOAD DUP2 SLOAD DUP2 LT PUSH2 0x82A JUMPI PUSH2 0x82A PUSH2 0xF7E JUMP JUMPDEST PUSH1 0x0 SWAP2 DUP3 MSTORE PUSH1 0x20 SWAP1 SWAP2 KECCAK256 PUSH1 0x2 SWAP1 SWAP2 MUL ADD SLOAD PUSH1 0x1 PUSH1 0x1 PUSH1 0x40 SHL SUB DUP6 DUP2 AND SWAP2 AND EQ PUSH2 0x8AC JUMPI PUSH1 0x40 MLOAD PUSH3 0x461BCD PUSH1 0xE5 SHL DUP2 MSTORE PUSH1 0x20 PUSH1 0x4 DUP3 ADD MSTORE PUSH1 0x2E PUSH1 0x24 DUP3 ADD MSTORE PUSH32 0x5468652076616C7565206F66206C6F673253697A6520646F65736E2774206D61 PUSH1 0x44 DUP3 ADD MSTORE PUSH14 0x74636820696E20686973746F7279 PUSH1 0x90 SHL PUSH1 0x64 DUP3 ADD MSTORE PUSH1 0x84 ADD PUSH2 0x157 JUMP JUMPDEST PUSH2 0x8B5 DUP2 PUSH2 0xF94 JUMP JUMPDEST SWAP1 POP PUSH2 0x77C JUMP JUMPDEST POP PUSH1 0x0 DUP3 MLOAD PUSH1 0x1 PUSH1 0x1 PUSH1 0x40 SHL SUB DUP2 GT ISZERO PUSH2 0x8D8 JUMPI PUSH2 0x8D8 PUSH2 0xC02 JUMP JUMPDEST PUSH1 0x40 MLOAD SWAP1 DUP1 DUP3 MSTORE DUP1 PUSH1 0x20 MUL PUSH1 0x20 ADD DUP3 ADD PUSH1 0x40 MSTORE DUP1 ISZERO PUSH2 0x901 JUMPI DUP2 PUSH1 0x20 ADD PUSH1 0x20 DUP3 MUL DUP1 CALLDATASIZE DUP4 CALLDATACOPY ADD SWAP1 POP JUMPDEST POP SWAP1 POP PUSH1 0x0 JUMPDEST DUP4 MLOAD DUP2 LT ISZERO PUSH2 0x97B JUMPI PUSH1 0x3 DUP5 DUP3 DUP2 MLOAD DUP2 LT PUSH2 0x924 JUMPI PUSH2 0x924 PUSH2 0xF7E JUMP JUMPDEST PUSH1 0x20 MUL PUSH1 0x20 ADD ADD MLOAD DUP2 SLOAD DUP2 LT PUSH2 0x93C JUMPI PUSH2 0x93C PUSH2 0xF7E JUMP JUMPDEST SWAP1 PUSH1 0x0 MSTORE PUSH1 0x20 PUSH1 0x0 KECCAK256 SWAP1 PUSH1 0x2 MUL ADD PUSH1 0x1 ADD SLOAD DUP3 DUP3 DUP2 MLOAD DUP2 LT PUSH2 0x960 JUMPI PUSH2 0x960 PUSH2 0xF7E JUMP JUMPDEST PUSH1 0x20 SWAP1 DUP2 MUL SWAP2 SWAP1 SWAP2 ADD ADD MSTORE PUSH2 0x974 DUP2 PUSH2 0xF94 JUMP JUMPDEST SWAP1 POP PUSH2 0x907 JUMP JUMPDEST POP PUSH1 0x40 MLOAD PUSH4 0x10561D57 PUSH1 0xE3 SHL DUP2 MSTORE PUSH1 0x0 SWAP1 PUSH20 0x0 SWAP1 PUSH4 0x82B0EAB8 SWAP1 PUSH2 0x9B6 SWAP1 DUP6 SWAP1 PUSH1 0x4 ADD PUSH2 0xFAD JUMP JUMPDEST PUSH1 0x20 PUSH1 0x40 MLOAD DUP1 DUP4 SUB DUP2 DUP7 GAS DELEGATECALL ISZERO DUP1 ISZERO PUSH2 0x9D3 JUMPI RETURNDATASIZE PUSH1 0x0 DUP1 RETURNDATACOPY RETURNDATASIZE PUSH1 0x0 REVERT JUMPDEST POP POP POP POP PUSH1 0x40 MLOAD RETURNDATASIZE PUSH1 0x1F NOT PUSH1 0x1F DUP3 ADD AND DUP3 ADD DUP1 PUSH1 0x40 MSTORE POP DUP2 ADD SWAP1 PUSH2 0x9F7 SWAP2 SWAP1 PUSH2 0xFF1 JUMP JUMPDEST SWAP1 POP PUSH1 0x0 PUSH20 0x0 PUSH4 0x6C8E54B DUP7 MLOAD PUSH1 0x40 MLOAD DUP3 PUSH4 0xFFFFFFFF AND PUSH1 0xE0 SHL DUP2 MSTORE PUSH1 0x4 ADD PUSH2 0xA35 SWAP2 DUP2 MSTORE PUSH1 0x20 ADD SWAP1 JUMP JUMPDEST PUSH1 0x20 PUSH1 0x40 MLOAD DUP1 DUP4 SUB DUP2 DUP7 GAS DELEGATECALL ISZERO DUP1 ISZERO PUSH2 0xA52 JUMPI RETURNDATASIZE PUSH1 0x0 DUP1 RETURNDATACOPY RETURNDATASIZE PUSH1 0x0 REVERT JUMPDEST POP POP POP POP PUSH1 0x40 MLOAD RETURNDATASIZE PUSH1 0x1F NOT PUSH1 0x1F DUP3 ADD AND DUP3 ADD DUP1 PUSH1 0x40 MSTORE POP DUP2 ADD SWAP1 PUSH2 0xA76 SWAP2 SWAP1 PUSH2 0x1091 JUMP JUMPDEST PUSH1 0xFF AND SWAP1 POP PUSH1 0x3 PUSH1 0x40 MLOAD DUP1 PUSH1 0x40 ADD PUSH1 0x40 MSTORE DUP1 DUP9 DUP5 PUSH2 0xA94 SWAP2 SWAP1 PUSH2 0x10B4 JUMP JUMPDEST PUSH1 0x1 PUSH1 0x1 PUSH1 0x40 SHL SUB SWAP1 DUP2 AND DUP3 MSTORE PUSH1 0x20 SWAP2 DUP3 ADD DUP7 SWAP1 MSTORE DUP4 SLOAD PUSH1 0x1 DUP1 DUP3 ADD DUP7 SSTORE PUSH1 0x0 SWAP6 DUP7 MSTORE SWAP5 DUP4 SWAP1 KECCAK256 DUP5 MLOAD PUSH1 0x2 SWAP1 SWAP3 MUL ADD DUP1 SLOAD PUSH8 0xFFFFFFFFFFFFFFFF NOT AND SWAP2 SWAP1 SWAP3 AND OR DUP2 SSTORE SWAP2 ADD MLOAD SWAP2 ADD SSTORE PUSH1 0x4 SLOAD DUP3 SWAP1 PUSH32 0x89CEFBA87D8A8FA0DB60EC3681079C7740B90465999C62CD7C00D65D3C9E57A9 DUP8 PUSH2 0xB0E DUP11 DUP7 PUSH2 0x10B4 JUMP JUMPDEST PUSH1 0x40 MLOAD PUSH2 0xB1C SWAP3 SWAP2 SWAP1 PUSH2 0x10DF JUMP JUMPDEST PUSH1 0x40 MLOAD DUP1 SWAP2 SUB SWAP1 LOG3 PUSH1 0x0 DUP3 DUP2 MSTORE PUSH1 0x20 DUP2 DUP2 MSTORE PUSH1 0x40 DUP1 DUP4 KECCAK256 DUP1 SLOAD PUSH1 0xFF NOT AND PUSH1 0x1 SWAP1 DUP2 OR SWAP1 SWAP2 SSTORE PUSH1 0x4 DUP1 SLOAD SWAP2 DUP5 MSTORE DUP3 DUP6 KECCAK256 DUP3 SWAP1 SSTORE SWAP1 DUP5 MSTORE PUSH1 0x2 SWAP1 SWAP3 MSTORE DUP3 KECCAK256 DUP5 SWAP1 SSTORE DUP1 SLOAD SWAP1 SWAP2 SWAP1 PUSH2 0xB69 SWAP1 PUSH2 0xF94 JUMP JUMPDEST SWAP1 SWAP2 SSTORE POP SWAP1 SWAP6 SWAP5 POP POP POP POP POP JUMP JUMPDEST PUSH1 0x0 DUP3 DUP2 MSTORE PUSH1 0x20 DUP2 SWAP1 MSTORE PUSH1 0x40 DUP2 KECCAK256 SLOAD PUSH1 0xFF AND ISZERO PUSH2 0xBDD JUMPI PUSH1 0x0 DUP4 DUP2 MSTORE PUSH1 0x1 PUSH1 0x20 MSTORE PUSH1 0x40 SWAP1 KECCAK256 SLOAD PUSH1 0x3 DUP1 SLOAD PUSH1 0x1 PUSH1 0x1 PUSH1 0x40 SHL SUB DUP6 AND SWAP3 SWAP1 DUP2 LT PUSH2 0xBBB JUMPI PUSH2 0xBBB PUSH2 0xF7E JUMP JUMPDEST PUSH1 0x0 SWAP2 DUP3 MSTORE PUSH1 0x20 SWAP1 SWAP2 KECCAK256 PUSH1 0x2 SWAP1 SWAP2 MUL ADD SLOAD PUSH1 0x1 PUSH1 0x1 PUSH1 0x40 SHL SUB AND EQ SWAP1 POP PUSH2 0x61A JUMP JUMPDEST POP PUSH1 0x0 SWAP3 SWAP2 POP POP JUMP JUMPDEST DUP1 CALLDATALOAD PUSH1 0x1 PUSH1 0x1 PUSH1 0x40 SHL SUB DUP2 AND DUP2 EQ PUSH2 0xBFD JUMPI PUSH1 0x0 DUP1 REVERT JUMPDEST SWAP2 SWAP1 POP JUMP JUMPDEST PUSH4 0x4E487B71 PUSH1 0xE0 SHL PUSH1 0x0 MSTORE PUSH1 0x41 PUSH1 0x4 MSTORE PUSH1 0x24 PUSH1 0x0 REVERT JUMPDEST PUSH1 0x40 MLOAD PUSH1 0x1F DUP3 ADD PUSH1 0x1F NOT AND DUP2 ADD PUSH1 0x1 PUSH1 0x1 PUSH1 0x40 SHL SUB DUP2 GT DUP3 DUP3 LT OR ISZERO PUSH2 0xC40 JUMPI PUSH2 0xC40 PUSH2 0xC02 JUMP JUMPDEST PUSH1 0x40 MSTORE SWAP2 SWAP1 POP JUMP JUMPDEST PUSH1 0x0 PUSH1 0x1 PUSH1 0x1 PUSH1 0x40 SHL SUB DUP3 GT ISZERO PUSH2 0xC61 JUMPI PUSH2 0xC61 PUSH2 0xC02 JUMP JUMPDEST POP PUSH1 0x5 SHL PUSH1 0x20 ADD SWAP1 JUMP JUMPDEST PUSH1 0x0 DUP1 PUSH1 0x40 DUP4 DUP6 SUB SLT ISZERO PUSH2 0xC7E JUMPI PUSH1 0x0 DUP1 REVERT JUMPDEST PUSH2 0xC87 DUP4 PUSH2 0xBE6 JUMP JUMPDEST SWAP2 POP PUSH1 0x20 DUP1 DUP5 ADD CALLDATALOAD PUSH1 0x1 PUSH1 0x1 PUSH1 0x40 SHL SUB DUP2 GT ISZERO PUSH2 0xCA3 JUMPI PUSH1 0x0 DUP1 REVERT JUMPDEST DUP5 ADD PUSH1 0x1F DUP2 ADD DUP7 SGT PUSH2 0xCB4 JUMPI PUSH1 0x0 DUP1 REVERT JUMPDEST DUP1 CALLDATALOAD PUSH2 0xCC7 PUSH2 0xCC2 DUP3 PUSH2 0xC48 JUMP JUMPDEST PUSH2 0xC18 JUMP JUMPDEST DUP2 DUP2 MSTORE PUSH1 0x5 SWAP2 SWAP1 SWAP2 SHL DUP3 ADD DUP4 ADD SWAP1 DUP4 DUP2 ADD SWAP1 DUP9 DUP4 GT ISZERO PUSH2 0xCE6 JUMPI PUSH1 0x0 DUP1 REVERT JUMPDEST SWAP3 DUP5 ADD SWAP3 JUMPDEST DUP3 DUP5 LT ISZERO PUSH2 0xD1B JUMPI DUP4 CALLDATALOAD PUSH1 0x1 PUSH1 0x1 PUSH1 0xC0 SHL SUB NOT DUP2 AND DUP2 EQ PUSH2 0xD0C JUMPI PUSH1 0x0 DUP1 DUP2 REVERT JUMPDEST DUP3 MSTORE SWAP3 DUP5 ADD SWAP3 SWAP1 DUP5 ADD SWAP1 PUSH2 0xCEB JUMP JUMPDEST DUP1 SWAP6 POP POP POP POP POP POP SWAP3 POP SWAP3 SWAP1 POP JUMP JUMPDEST PUSH1 0x0 PUSH1 0x20 DUP3 DUP5 SUB SLT ISZERO PUSH2 0xD3C JUMPI PUSH1 0x0 DUP1 REVERT JUMPDEST POP CALLDATALOAD SWAP2 SWAP1 POP JUMP JUMPDEST PUSH1 0x0 DUP1 PUSH1 0x40 DUP4 DUP6 SUB SLT ISZERO PUSH2 0xD56 JUMPI PUSH1 0x0 DUP1 REVERT JUMPDEST PUSH2 0xD5F DUP4 PUSH2 0xBE6 JUMP JUMPDEST SWAP2 POP PUSH1 0x20 DUP1 DUP5 ADD CALLDATALOAD PUSH1 0x1 PUSH1 0x1 PUSH1 0x40 SHL SUB DUP2 GT ISZERO PUSH2 0xD7B JUMPI PUSH1 0x0 DUP1 REVERT JUMPDEST DUP5 ADD PUSH1 0x1F DUP2 ADD DUP7 SGT PUSH2 0xD8C JUMPI PUSH1 0x0 DUP1 REVERT JUMPDEST DUP1 CALLDATALOAD PUSH2 0xD9A PUSH2 0xCC2 DUP3 PUSH2 0xC48 JUMP JUMPDEST DUP2 DUP2 MSTORE PUSH1 0x5 SWAP2 SWAP1 SWAP2 SHL DUP3 ADD DUP4 ADD SWAP1 DUP4 DUP2 ADD SWAP1 DUP9 DUP4 GT ISZERO PUSH2 0xDB9 JUMPI PUSH1 0x0 DUP1 REVERT JUMPDEST SWAP3 DUP5 ADD SWAP3 JUMPDEST DUP3 DUP5 LT ISZERO PUSH2 0xD1B JUMPI DUP4 CALLDATALOAD DUP3 MSTORE SWAP3 DUP5 ADD SWAP3 SWAP1 DUP5 ADD SWAP1 PUSH2 0xDBE JUMP JUMPDEST PUSH1 0x0 DUP1 PUSH1 0x40 DUP4 DUP6 SUB SLT ISZERO PUSH2 0xDEA JUMPI PUSH1 0x0 DUP1 REVERT JUMPDEST DUP3 CALLDATALOAD SWAP2 POP PUSH2 0xDFA PUSH1 0x20 DUP5 ADD PUSH2 0xBE6 JUMP JUMPDEST SWAP1 POP SWAP3 POP SWAP3 SWAP1 POP JUMP JUMPDEST PUSH4 0x4E487B71 PUSH1 0xE0 SHL PUSH1 0x0 MSTORE PUSH1 0x11 PUSH1 0x4 MSTORE PUSH1 0x24 PUSH1 0x0 REVERT JUMPDEST PUSH1 0x0 PUSH1 0x1 PUSH1 0x1 PUSH1 0x40 SHL SUB DUP4 DUP2 AND SWAP1 DUP4 AND DUP2 DUP2 LT ISZERO PUSH2 0xE39 JUMPI PUSH2 0xE39 PUSH2 0xE03 JUMP JUMPDEST SUB SWAP4 SWAP3 POP POP POP JUMP JUMPDEST PUSH1 0x1 DUP2 DUP2 JUMPDEST DUP1 DUP6 GT ISZERO PUSH2 0xE81 JUMPI DUP2 PUSH1 0x1 PUSH1 0x1 PUSH1 0x40 SHL SUB DIV DUP3 GT ISZERO PUSH2 0xE67 JUMPI PUSH2 0xE67 PUSH2 0xE03 JUMP JUMPDEST DUP1 DUP6 AND ISZERO PUSH2 0xE74 JUMPI SWAP2 DUP2 MUL SWAP2 JUMPDEST SWAP4 DUP5 SHR SWAP4 SWAP1 DUP1 MUL SWAP1 PUSH2 0xE46 JUMP JUMPDEST POP SWAP3 POP SWAP3 SWAP1 POP JUMP JUMPDEST PUSH1 0x0 DUP3 PUSH2 0xE98 JUMPI POP PUSH1 0x1 PUSH2 0x61A JUMP JUMPDEST DUP2 PUSH2 0xEA5 JUMPI POP PUSH1 0x0 PUSH2 0x61A JUMP JUMPDEST DUP2 PUSH1 0x1 DUP2 EQ PUSH2 0xEBB JUMPI PUSH1 0x2 DUP2 EQ PUSH2 0xEC5 JUMPI PUSH2 0xEF9 JUMP JUMPDEST PUSH1 0x1 SWAP2 POP POP PUSH2 0x61A JUMP JUMPDEST PUSH1 0xFF DUP5 GT ISZERO PUSH2 0xED6 JUMPI PUSH2 0xED6 PUSH2 0xE03 JUMP JUMPDEST PUSH1 0x1 DUP5 SHL SWAP2 POP PUSH1 0x1 PUSH1 0x1 PUSH1 0x40 SHL SUB DUP3 GT ISZERO PUSH2 0xEF3 JUMPI PUSH2 0xEF3 PUSH2 0xE03 JUMP JUMPDEST POP PUSH2 0x61A JUMP JUMPDEST POP PUSH1 0x20 DUP4 LT PUSH2 0x133 DUP4 LT AND PUSH1 0x4E DUP5 LT PUSH1 0xB DUP5 LT AND OR ISZERO PUSH2 0xF33 JUMPI POP DUP2 DUP2 EXP PUSH1 0x1 PUSH1 0x1 PUSH1 0x40 SHL SUB DUP2 GT ISZERO PUSH2 0xF2E JUMPI PUSH2 0xF2E PUSH2 0xE03 JUMP JUMPDEST PUSH2 0x61A JUMP JUMPDEST PUSH2 0xF3D DUP4 DUP4 PUSH2 0xE41 JUMP JUMPDEST DUP1 PUSH1 0x1 PUSH1 0x1 PUSH1 0x40 SHL SUB DIV DUP3 GT ISZERO PUSH2 0xF56 JUMPI PUSH2 0xF56 PUSH2 0xE03 JUMP JUMPDEST MUL SWAP4 SWAP3 POP POP POP JUMP JUMPDEST PUSH1 0x0 PUSH1 0x1 PUSH1 0x1 PUSH1 0x40 SHL SUB PUSH2 0xF76 DUP2 DUP6 AND DUP3 DUP6 AND PUSH2 0xE89 JUMP JUMPDEST SWAP5 SWAP4 POP POP POP POP JUMP JUMPDEST PUSH4 0x4E487B71 PUSH1 0xE0 SHL PUSH1 0x0 MSTORE PUSH1 0x32 PUSH1 0x4 MSTORE PUSH1 0x24 PUSH1 0x0 REVERT JUMPDEST PUSH1 0x0 PUSH1 0x1 DUP3 ADD PUSH2 0xFA6 JUMPI PUSH2 0xFA6 PUSH2 0xE03 JUMP JUMPDEST POP PUSH1 0x1 ADD SWAP1 JUMP JUMPDEST PUSH1 0x20 DUP1 DUP3 MSTORE DUP3 MLOAD DUP3 DUP3 ADD DUP2 SWAP1 MSTORE PUSH1 0x0 SWAP2 SWAP1 DUP5 DUP3 ADD SWAP1 PUSH1 0x40 DUP6 ADD SWAP1 DUP5 JUMPDEST DUP2 DUP2 LT ISZERO PUSH2 0xFE5 JUMPI DUP4 MLOAD DUP4 MSTORE SWAP3 DUP5 ADD SWAP3 SWAP2 DUP5 ADD SWAP2 PUSH1 0x1 ADD PUSH2 0xFC9 JUMP JUMPDEST POP SWAP1 SWAP7 SWAP6 POP POP POP POP POP POP JUMP JUMPDEST PUSH1 0x0 PUSH1 0x20 DUP3 DUP5 SUB SLT ISZERO PUSH2 0x1003 JUMPI PUSH1 0x0 DUP1 REVERT JUMPDEST POP MLOAD SWAP2 SWAP1 POP JUMP JUMPDEST PUSH1 0x40 DUP1 DUP3 MSTORE DUP4 MLOAD SWAP1 DUP3 ADD DUP2 SWAP1 MSTORE PUSH1 0x0 SWAP1 PUSH1 0x20 SWAP1 PUSH1 0x60 DUP5 ADD SWAP1 DUP3 DUP8 ADD DUP5 JUMPDEST DUP3 DUP2 LT ISZERO PUSH2 0x104D JUMPI DUP2 MLOAD PUSH1 0x1 PUSH1 0x1 PUSH1 0xC0 SHL SUB NOT AND DUP5 MSTORE SWAP3 DUP5 ADD SWAP3 SWAP1 DUP5 ADD SWAP1 PUSH1 0x1 ADD PUSH2 0x1027 JUMP JUMPDEST POP POP POP PUSH1 0x1 PUSH1 0x1 PUSH1 0x40 SHL SUB SWAP5 SWAP1 SWAP5 AND SWAP3 ADD SWAP2 SWAP1 SWAP2 MSTORE POP SWAP2 SWAP1 POP JUMP JUMPDEST PUSH1 0x0 PUSH1 0x20 DUP3 DUP5 SUB SLT ISZERO PUSH2 0x107A JUMPI PUSH1 0x0 DUP1 REVERT JUMPDEST DUP2 MLOAD DUP1 ISZERO ISZERO DUP2 EQ PUSH2 0x108A JUMPI PUSH1 0x0 DUP1 REVERT JUMPDEST SWAP4 SWAP3 POP POP POP JUMP JUMPDEST PUSH1 0x0 PUSH1 0x20 DUP3 DUP5 SUB SLT ISZERO PUSH2 0x10A3 JUMPI PUSH1 0x0 DUP1 REVERT JUMPDEST DUP2 MLOAD PUSH1 0xFF DUP2 AND DUP2 EQ PUSH2 0x108A JUMPI PUSH1 0x0 DUP1 REVERT JUMPDEST PUSH1 0x0 PUSH1 0x1 PUSH1 0x1 PUSH1 0x40 SHL SUB DUP1 DUP4 AND DUP2 DUP6 AND DUP1 DUP4 SUB DUP3 GT ISZERO PUSH2 0x10D6 JUMPI PUSH2 0x10D6 PUSH2 0xE03 JUMP JUMPDEST ADD SWAP5 SWAP4 POP POP POP POP JUMP JUMPDEST PUSH1 0x40 DUP1 DUP3 MSTORE DUP4 MLOAD SWAP1 DUP3 ADD DUP2 SWAP1 MSTORE PUSH1 0x0 SWAP1 PUSH1 0x20 SWAP1 PUSH1 0x60 DUP5 ADD SWAP1 DUP3 DUP8 ADD DUP5 JUMPDEST DUP3 DUP2 LT ISZERO PUSH2 0x104D JUMPI DUP2 MLOAD DUP5 MSTORE SWAP3 DUP5 ADD SWAP3 SWAP1 DUP5 ADD SWAP1 PUSH1 0x1 ADD PUSH2 0x10FC JUMP INVALID LOG2 PUSH5 0x6970667358 0x22 SLT KECCAK256 0xF7 0xA8 PUSH23 0xD4CFECE5EDDF6CEDB9D1C12DC60B8ACCF2615040F34D22 0xEC 0x23 DIFFICULTY DUP12 0xA6 SLOAD PUSH5 0x736F6C6343 STOP ADDMOD 0xF STOP CALLER "
    },
    "gasEstimates": {
      "creation": {
        "codeDepositCost": "886000",
        "executionCost": "5928",
        "totalCost": "891928"
      },
      "external": {
        "calculateMerkleRootFromData(uint64,bytes8[])": "infinite",
        "calculateMerkleRootFromHistory(uint64,uint256[])": "infinite",
        "currentIndex()": "2262",
        "getLogIndex(bytes32)": "2471",
        "getLogRoot(uint256)": "4589",
        "isLogAvailable(bytes32,uint64)": "9217"
      }
    },
    "methodIdentifiers": {
      "calculateMerkleRootFromData(uint64,bytes8[])": "4891ea36",
      "calculateMerkleRootFromHistory(uint64,uint256[])": "a1ddff26",
      "currentIndex()": "26987b60",
      "getLogIndex(bytes32)": "833459bc",
      "getLogRoot(uint256)": "6a22e5fd",
      "isLogAvailable(bytes32,uint64)": "adaea8dc"
    }
  },
  "storageLayout": {
    "storage": [
      {
        "astId": 571,
        "contract": "contracts/Logger.sol:Logger",
        "label": "logSubmitted",
        "offset": 0,
        "slot": "0",
        "type": "t_mapping(t_bytes32,t_bool)"
      },
      {
        "astId": 575,
        "contract": "contracts/Logger.sol:Logger",
        "label": "logIndex",
        "offset": 0,
        "slot": "1",
        "type": "t_mapping(t_bytes32,t_uint256)"
      },
      {
        "astId": 579,
        "contract": "contracts/Logger.sol:Logger",
        "label": "logRoot",
        "offset": 0,
        "slot": "2",
        "type": "t_mapping(t_uint256,t_bytes32)"
      },
      {
        "astId": 583,
        "contract": "contracts/Logger.sol:Logger",
        "label": "dataHistory",
        "offset": 0,
        "slot": "3",
        "type": "t_array(t_struct(DataEntry)567_storage)dyn_storage"
      },
      {
        "astId": 586,
        "contract": "contracts/Logger.sol:Logger",
        "label": "currentIndex",
        "offset": 0,
        "slot": "4",
        "type": "t_uint256"
      }
    ],
    "types": {
      "t_array(t_struct(DataEntry)567_storage)dyn_storage": {
        "base": "t_struct(DataEntry)567_storage",
        "encoding": "dynamic_array",
        "label": "struct Logger.DataEntry[]",
        "numberOfBytes": "32"
      },
      "t_bool": {
        "encoding": "inplace",
        "label": "bool",
        "numberOfBytes": "1"
      },
      "t_bytes32": {
        "encoding": "inplace",
        "label": "bytes32",
        "numberOfBytes": "32"
      },
      "t_mapping(t_bytes32,t_bool)": {
        "encoding": "mapping",
        "key": "t_bytes32",
        "label": "mapping(bytes32 => bool)",
        "numberOfBytes": "32",
        "value": "t_bool"
      },
      "t_mapping(t_bytes32,t_uint256)": {
        "encoding": "mapping",
        "key": "t_bytes32",
        "label": "mapping(bytes32 => uint256)",
        "numberOfBytes": "32",
        "value": "t_uint256"
      },
      "t_mapping(t_uint256,t_bytes32)": {
        "encoding": "mapping",
        "key": "t_uint256",
        "label": "mapping(uint256 => bytes32)",
        "numberOfBytes": "32",
        "value": "t_bytes32"
      },
      "t_struct(DataEntry)567_storage": {
        "encoding": "inplace",
        "label": "struct Logger.DataEntry",
        "members": [
          {
            "astId": 564,
            "contract": "contracts/Logger.sol:Logger",
            "label": "log2Size",
            "offset": 0,
            "slot": "0",
            "type": "t_uint64"
          },
          {
            "astId": 566,
            "contract": "contracts/Logger.sol:Logger",
            "label": "root",
            "offset": 0,
            "slot": "1",
            "type": "t_bytes32"
          }
        ],
        "numberOfBytes": "64"
      },
      "t_uint256": {
        "encoding": "inplace",
        "label": "uint256",
        "numberOfBytes": "32"
      },
      "t_uint64": {
        "encoding": "inplace",
        "label": "uint64",
        "numberOfBytes": "8"
      }
    }
  },
  "userdoc": {
    "kind": "user",
    "methods": {
      "calculateMerkleRootFromData(uint64,bytes8[])": {
        "notice": "Calculate the Merkle tree and return the root hash"
      },
      "calculateMerkleRootFromHistory(uint64,uint256[])": {
        "notice": "Calculate the Merkle tree and return the root hash"
      },
      "getLogIndex(bytes32)": {
        "notice": "Getter function to get the index in the history for the given hash"
      },
      "getLogRoot(uint256)": {
        "notice": "Getter function to get the root in the history for the given index"
      },
      "isLogAvailable(bytes32,uint64)": {
        "notice": "Getter function to check if log has been submitted for the given hash"
      }
    },
    "notice": "A contract that offers data availability",
    "version": 1
  }
}