{
  "contractName": "LoggerTestInstantiator",
  "sourceName": "contracts/LoggerTestInstantiator.sol",
  "abi": [
    {
      "inputs": [
        {
          "internalType": "address",
          "name": "_user",
          "type": "address"
        }
      ],
      "stateMutability": "nonpayable",
      "type": "constructor"
    },
    {
      "anonymous": false,
      "inputs": [
        {
          "indexed": false,
          "internalType": "uint256",
          "name": "_index",
          "type": "uint256"
        },
        {
          "indexed": false,
          "internalType": "address",
          "name": "_user",
          "type": "address"
        }
      ],
      "name": "LoggerTestCreated",
      "type": "event"
    },
    {
      "anonymous": false,
      "inputs": [
        {
          "indexed": false,
          "internalType": "uint256",
          "name": "_index",
          "type": "uint256"
        },
        {
          "indexed": false,
          "internalType": "uint8",
          "name": "_state",
          "type": "uint8"
        }
      ],
      "name": "LoggerTestFinished",
      "type": "event"
    },
    {
      "inputs": [
        {
          "internalType": "uint256",
          "name": "_index",
          "type": "uint256"
        },
        {
          "internalType": "bytes32",
          "name": "_submittedHash",
          "type": "bytes32"
        }
      ],
      "name": "claimDownloading",
      "outputs": [],
      "stateMutability": "nonpayable",
      "type": "function"
    },
    {
      "inputs": [
        {
          "internalType": "uint256",
          "name": "_index",
          "type": "uint256"
        }
      ],
      "name": "claimFinished",
      "outputs": [],
      "stateMutability": "nonpayable",
      "type": "function"
    },
    {
      "inputs": [
        {
          "internalType": "uint256",
          "name": "_index",
          "type": "uint256"
        }
      ],
      "name": "claimSubmitting",
      "outputs": [],
      "stateMutability": "nonpayable",
      "type": "function"
    },
    {
      "inputs": [],
      "name": "currentIndex",
      "outputs": [
        {
          "internalType": "uint256",
          "name": "",
          "type": "uint256"
        }
      ],
      "stateMutability": "view",
      "type": "function"
    },
    {
      "inputs": [
        {
          "internalType": "uint256",
          "name": "_index",
          "type": "uint256"
        }
      ],
      "name": "getCurrentState",
      "outputs": [
        {
          "internalType": "bytes32",
          "name": "",
          "type": "bytes32"
        }
      ],
      "stateMutability": "view",
      "type": "function"
    },
    {
      "inputs": [
        {
          "internalType": "uint256",
          "name": "_index",
          "type": "uint256"
        }
      ],
      "name": "getNonce",
      "outputs": [
        {
          "internalType": "uint256",
          "name": "currentNonce",
          "type": "uint256"
        }
      ],
      "stateMutability": "view",
      "type": "function"
    },
    {
      "inputs": [
        {
          "internalType": "uint256",
          "name": "_index",
          "type": "uint256"
        },
        {
          "internalType": "address",
          "name": "",
          "type": "address"
        }
      ],
      "name": "getState",
      "outputs": [
        {
          "internalType": "address",
          "name": "_user",
          "type": "address"
        },
        {
          "internalType": "bytes32",
          "name": "_hash",
          "type": "bytes32"
        },
        {
          "internalType": "bytes32",
          "name": "_currentState",
          "type": "bytes32"
        }
      ],
      "stateMutability": "view",
      "type": "function"
    },
    {
      "inputs": [
        {
          "internalType": "uint256",
          "name": "",
          "type": "uint256"
        },
        {
          "internalType": "address",
          "name": "",
          "type": "address"
        }
      ],
      "name": "getSubInstances",
      "outputs": [
        {
          "internalType": "address[]",
          "name": "",
          "type": "address[]"
        },
        {
          "internalType": "uint256[]",
          "name": "",
          "type": "uint256[]"
        }
      ],
      "stateMutability": "pure",
      "type": "function"
    },
    {
      "inputs": [
        {
          "internalType": "uint256",
          "name": "_index",
          "type": "uint256"
        }
      ],
      "name": "isActive",
      "outputs": [
        {
          "internalType": "bool",
          "name": "",
          "type": "bool"
        }
      ],
      "stateMutability": "view",
      "type": "function"
    },
    {
      "inputs": [
        {
          "internalType": "uint256",
          "name": "_index",
          "type": "uint256"
        },
        {
          "internalType": "address",
          "name": "_user",
          "type": "address"
        }
      ],
      "name": "isConcerned",
      "outputs": [
        {
          "internalType": "bool",
          "name": "",
          "type": "bool"
        }
      ],
      "stateMutability": "view",
      "type": "function"
    },
    {
      "inputs": [
        {
          "internalType": "uint256",
          "name": "_index",
          "type": "uint256"
        }
      ],
      "name": "stateIsDownloading",
      "outputs": [
        {
          "internalType": "bool",
          "name": "",
          "type": "bool"
        }
      ],
      "stateMutability": "view",
      "type": "function"
    },
    {
      "inputs": [
        {
          "internalType": "uint256",
          "name": "_index",
          "type": "uint256"
        }
      ],
      "name": "stateIsFinished",
      "outputs": [
        {
          "internalType": "bool",
          "name": "",
          "type": "bool"
        }
      ],
      "stateMutability": "view",
      "type": "function"
    },
    {
      "inputs": [
        {
          "internalType": "uint256",
          "name": "_index",
          "type": "uint256"
        }
      ],
      "name": "stateIsSubmitting",
      "outputs": [
        {
          "internalType": "bool",
          "name": "",
          "type": "bool"
        }
      ],
      "stateMutability": "view",
      "type": "function"
    }
  ],
  "bytecode": "0x60806040526000805534801561001457600080fd5b50604051610ce8380380610ce883398101604081905261003391610114565b6000808055808052600360209081527f3617319a054d772f909f7c479a2cebe5066e836a939412e32403c99029b92eff80546001600160a01b0385166001600160a01b0319909116811782557f3617319a054d772f909f7c479a2cebe5066e836a939412e32403c99029b92f01805460ff191690556040805194855292840152917f77a232d0b541d1b39d33a99d472f21d566b9eca98e550634b0154ffda4f85925910160405180910390a16000805481526001602081905260408220805460ff191690911790558054908061010883610144565b9190505550505061016b565b60006020828403121561012657600080fd5b81516001600160a01b038116811461013d57600080fd5b9392505050565b60006001820161016457634e487b7160e01b600052601160045260246000fd5b5060010190565b610b6e8061017a6000396000f3fe608060405234801561001057600080fd5b50600436106100cf5760003560e01c80635748c1301161008c57806397e33a021161006657806397e33a02146101eb5780639e820187146101fe578063c526656c14610211578063ef068ba41461024857600080fd5b80635748c1301461017d57806373df16121461019057806382afd23b146101c857600080fd5b806301ff62ab146100d45780630f3887b414610118578063155d31da1461012d57806315d84dc21461014057806326987b60146101535780633d46b8191461016a575b600080fd5b6101036100e23660046109c0565b600091825260036020526040909120546001600160a01b0391821691161490565b60405190151581526020015b60405180910390f35b61012b6101263660046109fc565b61025b565b005b61010361013b3660046109fc565b610351565b61010361014e3660046109fc565b6103aa565b61015c60005481565b60405190815260200161010f565b61015c6101783660046109fc565b6103d5565b61015c61018b3660046109fc565b61045c565b6101a361019e3660046109c0565b6105c1565b604080516001600160a01b03909416845260208401929092529082015260600161010f565b6101036101d63660046109fc565b60009081526001602052604090205460ff1690565b61012b6101f93660046109fc565b610739565b61010361020c3660046109fc565b61089e565b61023a61021f3660046109c0565b50506040805160008082526020820190815281830190925291565b60405161010f929190610a15565b61012b610256366004610a99565b6108c9565b8080600054116102865760405162461bcd60e51b815260040161027d90610abb565b60405180910390fd5b6000828152600360205260409020546001600160a01b03163381146102bd5760405162461bcd60e51b815260040161027d90610aeb565b600083815260036020819052604082206002015460ff16908111156102e4576102e4610b22565b146103315760405162461bcd60e51b815260206004820152601860248201527f5468652073746174652073686f756c642062652049646c650000000000000000604482015260640161027d565b50506000908152600360205260409020600201805460ff19166001179055565b60008180600054116103755760405162461bcd60e51b815260040161027d90610abb565b60025b60008481526003602081905260409091206002015460ff16908111156103a0576103a0610b22565b1491505b50919050565b60008180600054116103ce5760405162461bcd60e51b815260040161027d90610abb565b6001610378565b60008180600054116103f95760405162461bcd60e51b815260040161027d90610abb565b60008181526001602052604090205460ff166104485760405162461bcd60e51b815260206004820152600e60248201526d496e64657820696e61637469766560901b604482015260640161027d565b505060009081526002602052604090205490565b60008180600054116104805760405162461bcd60e51b815260040161027d90610abb565b600083815260036020819052604082206002015460ff16908111156104a7576104a7610b22565b036104bb576349646c6560e01b91506103a4565b600160008481526003602081905260409091206002015460ff16908111156104e5576104e5610b22565b036104ff57695375626d697474696e6760b01b91506103a4565b600260008481526003602081905260409091206002015460ff169081111561052957610529610b22565b03610544576a446f776e6c6f6164696e6760a81b91506103a4565b60008381526003602081905260409091206002015460ff168181111561056c5761056c610b22565b036105845767119a5b9a5cda195960c21b91506103a4565b60405162461bcd60e51b8152602060048201526012602482015271556e7265636f676e697a656420737461746560701b604482015260640161027d565b6000828152600360208181526040808420815160608101835281546001600160a01b0316815260018201549381019390935260028101548594859485949093929084019160ff9091169081111561061a5761061a610b22565b600381111561062b5761062b610b22565b905250905060008060008881526003602081905260409091206002015460ff169081111561065b5761065b610b22565b0361066a57506349646c6560e01b5b600160008881526003602081905260409091206002015460ff169081111561069457610694610b22565b036106a95750695375626d697474696e6760b01b5b600260008881526003602081905260409091206002015460ff16908111156106d3576106d3610b22565b036106e957506a446f776e6c6f6164696e6760a81b5b60008781526003602081905260409091206002015460ff168181111561071157610711610b22565b03610724575067119a5b9a5cda195960c21b5b81516020909201519197919650945092505050565b80806000541161075b5760405162461bcd60e51b815260040161027d90610abb565b6000828152600360205260409020546001600160a01b03163381146107925760405162461bcd60e51b815260040161027d90610aeb565b600260008481526003602081905260409091206002015460ff16908111156107bc576107bc610b22565b146108095760405162461bcd60e51b815260206004820152601f60248201527f5468652073746174652073686f756c6420626520446f776e6c6f6164696e6700604482015260640161027d565b60008381526003602081815260408084206002908101805460ff199081168617825560018552838720805490911690559083529084209390935581905290547fbdd51eb9fb70bb6e48865170e5931f9a9ad837dd15a4749be5eb0de6e645856191859160ff169081111561087f5761087f610b22565b6040805192835260ff90911660208301520160405180910390a1505050565b60008180600054116108c25760405162461bcd60e51b815260040161027d90610abb565b6003610378565b8180600054116108eb5760405162461bcd60e51b815260040161027d90610abb565b6000838152600360205260409020546001600160a01b03163381146109225760405162461bcd60e51b815260040161027d90610aeb565b600160008581526003602081905260409091206002015460ff169081111561094c5761094c610b22565b146109995760405162461bcd60e51b815260206004820152601e60248201527f5468652073746174652073686f756c64206265205375626d697474696e670000604482015260640161027d565b50506000918252600360205260409091206002808201805460ff1916909117905560010155565b600080604083850312156109d357600080fd5b8235915060208301356001600160a01b03811681146109f157600080fd5b809150509250929050565b600060208284031215610a0e57600080fd5b5035919050565b604080825283519082018190526000906020906060840190828701845b82811015610a575781516001600160a01b031684529284019290840190600101610a32565b5050508381038285015284518082528583019183019060005b81811015610a8c57835183529284019291840191600101610a70565b5090979650505050505050565b60008060408385031215610aac57600080fd5b50508035926020909101359150565b602080825260169082015275125b99195e081b9bdd081a5b9cdd185b9d1a585d195960521b604082015260600190565b60208082526018908201527f43616e6e6f742062652063616c6c656420627920757365720000000000000000604082015260600190565b634e487b7160e01b600052602160045260246000fdfea264697066735822122070008f1ff570d1e3618fdf4386331ab2f5c5b23f78582ac5aa45e0f95790f70164736f6c634300080f0033",
  "linkReferences": {},
  "deployedLinkReferences": {},
  "devdoc": {
    "kind": "dev",
    "methods": {},
    "version": 1
  },
  "evm": {
    "bytecode": {
      "linkReferences": {},
      "opcodes": "PUSH1 0x80 PUSH1 0x40 MSTORE PUSH1 0x0 DUP1 SSTORE CALLVALUE DUP1 ISZERO PUSH2 0x14 JUMPI PUSH1 0x0 DUP1 REVERT JUMPDEST POP PUSH1 0x40 MLOAD PUSH2 0xCE8 CODESIZE SUB DUP1 PUSH2 0xCE8 DUP4 CODECOPY DUP2 ADD PUSH1 0x40 DUP2 SWAP1 MSTORE PUSH2 0x33 SWAP2 PUSH2 0x114 JUMP JUMPDEST PUSH1 0x0 DUP1 DUP1 SSTORE DUP1 DUP1 MSTORE PUSH1 0x3 PUSH1 0x20 SWAP1 DUP2 MSTORE PUSH32 0x3617319A054D772F909F7C479A2CEBE5066E836A939412E32403C99029B92EFF DUP1 SLOAD PUSH1 0x1 PUSH1 0x1 PUSH1 0xA0 SHL SUB DUP6 AND PUSH1 0x1 PUSH1 0x1 PUSH1 0xA0 SHL SUB NOT SWAP1 SWAP2 AND DUP2 OR DUP3 SSTORE PUSH32 0x3617319A054D772F909F7C479A2CEBE5066E836A939412E32403C99029B92F01 DUP1 SLOAD PUSH1 0xFF NOT AND SWAP1 SSTORE PUSH1 0x40 DUP1 MLOAD SWAP5 DUP6 MSTORE SWAP3 DUP5 ADD MSTORE SWAP2 PUSH32 0x77A232D0B541D1B39D33A99D472F21D566B9ECA98E550634B0154FFDA4F85925 SWAP2 ADD PUSH1 0x40 MLOAD DUP1 SWAP2 SUB SWAP1 LOG1 PUSH1 0x0 DUP1 SLOAD DUP2 MSTORE PUSH1 0x1 PUSH1 0x20 DUP2 SWAP1 MSTORE PUSH1 0x40 DUP3 KECCAK256 DUP1 SLOAD PUSH1 0xFF NOT AND SWAP1 SWAP2 OR SWAP1 SSTORE DUP1 SLOAD SWAP1 DUP1 PUSH2 0x108 DUP4 PUSH2 0x144 JUMP JUMPDEST SWAP2 SWAP1 POP SSTORE POP POP POP PUSH2 0x16B JUMP JUMPDEST PUSH1 0x0 PUSH1 0x20 DUP3 DUP5 SUB SLT ISZERO PUSH2 0x126 JUMPI PUSH1 0x0 DUP1 REVERT JUMPDEST DUP2 MLOAD PUSH1 0x1 PUSH1 0x1 PUSH1 0xA0 SHL SUB DUP2 AND DUP2 EQ PUSH2 0x13D JUMPI PUSH1 0x0 DUP1 REVERT JUMPDEST SWAP4 SWAP3 POP POP POP JUMP JUMPDEST PUSH1 0x0 PUSH1 0x1 DUP3 ADD PUSH2 0x164 JUMPI PUSH4 0x4E487B71 PUSH1 0xE0 SHL PUSH1 0x0 MSTORE PUSH1 0x11 PUSH1 0x4 MSTORE PUSH1 0x24 PUSH1 0x0 REVERT JUMPDEST POP PUSH1 0x1 ADD SWAP1 JUMP JUMPDEST PUSH2 0xB6E DUP1 PUSH2 0x17A PUSH1 0x0 CODECOPY PUSH1 0x0 RETURN INVALID PUSH1 0x80 PUSH1 0x40 MSTORE CALLVALUE DUP1 ISZERO PUSH2 0x10 JUMPI PUSH1 0x0 DUP1 REVERT JUMPDEST POP PUSH1 0x4 CALLDATASIZE LT PUSH2 0xCF JUMPI PUSH1 0x0 CALLDATALOAD PUSH1 0xE0 SHR DUP1 PUSH4 0x5748C130 GT PUSH2 0x8C JUMPI DUP1 PUSH4 0x97E33A02 GT PUSH2 0x66 JUMPI DUP1 PUSH4 0x97E33A02 EQ PUSH2 0x1EB JUMPI DUP1 PUSH4 0x9E820187 EQ PUSH2 0x1FE JUMPI DUP1 PUSH4 0xC526656C EQ PUSH2 0x211 JUMPI DUP1 PUSH4 0xEF068BA4 EQ PUSH2 0x248 JUMPI PUSH1 0x0 DUP1 REVERT JUMPDEST DUP1 PUSH4 0x5748C130 EQ PUSH2 0x17D JUMPI DUP1 PUSH4 0x73DF1612 EQ PUSH2 0x190 JUMPI DUP1 PUSH4 0x82AFD23B EQ PUSH2 0x1C8 JUMPI PUSH1 0x0 DUP1 REVERT JUMPDEST DUP1 PUSH4 0x1FF62AB EQ PUSH2 0xD4 JUMPI DUP1 PUSH4 0xF3887B4 EQ PUSH2 0x118 JUMPI DUP1 PUSH4 0x155D31DA EQ PUSH2 0x12D JUMPI DUP1 PUSH4 0x15D84DC2 EQ PUSH2 0x140 JUMPI DUP1 PUSH4 0x26987B60 EQ PUSH2 0x153 JUMPI DUP1 PUSH4 0x3D46B819 EQ PUSH2 0x16A JUMPI JUMPDEST PUSH1 0x0 DUP1 REVERT JUMPDEST PUSH2 0x103 PUSH2 0xE2 CALLDATASIZE PUSH1 0x4 PUSH2 0x9C0 JUMP JUMPDEST PUSH1 0x0 SWAP2 DUP3 MSTORE PUSH1 0x3 PUSH1 0x20 MSTORE PUSH1 0x40 SWAP1 SWAP2 KECCAK256 SLOAD PUSH1 0x1 PUSH1 0x1 PUSH1 0xA0 SHL SUB SWAP2 DUP3 AND SWAP2 AND EQ SWAP1 JUMP JUMPDEST PUSH1 0x40 MLOAD SWAP1 ISZERO ISZERO DUP2 MSTORE PUSH1 0x20 ADD JUMPDEST PUSH1 0x40 MLOAD DUP1 SWAP2 SUB SWAP1 RETURN JUMPDEST PUSH2 0x12B PUSH2 0x126 CALLDATASIZE PUSH1 0x4 PUSH2 0x9FC JUMP JUMPDEST PUSH2 0x25B JUMP JUMPDEST STOP JUMPDEST PUSH2 0x103 PUSH2 0x13B CALLDATASIZE PUSH1 0x4 PUSH2 0x9FC JUMP JUMPDEST PUSH2 0x351 JUMP JUMPDEST PUSH2 0x103 PUSH2 0x14E CALLDATASIZE PUSH1 0x4 PUSH2 0x9FC JUMP JUMPDEST PUSH2 0x3AA JUMP JUMPDEST PUSH2 0x15C PUSH1 0x0 SLOAD DUP2 JUMP JUMPDEST PUSH1 0x40 MLOAD SWAP1 DUP2 MSTORE PUSH1 0x20 ADD PUSH2 0x10F JUMP JUMPDEST PUSH2 0x15C PUSH2 0x178 CALLDATASIZE PUSH1 0x4 PUSH2 0x9FC JUMP JUMPDEST PUSH2 0x3D5 JUMP JUMPDEST PUSH2 0x15C PUSH2 0x18B CALLDATASIZE PUSH1 0x4 PUSH2 0x9FC JUMP JUMPDEST PUSH2 0x45C JUMP JUMPDEST PUSH2 0x1A3 PUSH2 0x19E CALLDATASIZE PUSH1 0x4 PUSH2 0x9C0 JUMP JUMPDEST PUSH2 0x5C1 JUMP JUMPDEST PUSH1 0x40 DUP1 MLOAD PUSH1 0x1 PUSH1 0x1 PUSH1 0xA0 SHL SUB SWAP1 SWAP5 AND DUP5 MSTORE PUSH1 0x20 DUP5 ADD SWAP3 SWAP1 SWAP3 MSTORE SWAP1 DUP3 ADD MSTORE PUSH1 0x60 ADD PUSH2 0x10F JUMP JUMPDEST PUSH2 0x103 PUSH2 0x1D6 CALLDATASIZE PUSH1 0x4 PUSH2 0x9FC JUMP JUMPDEST PUSH1 0x0 SWAP1 DUP2 MSTORE PUSH1 0x1 PUSH1 0x20 MSTORE PUSH1 0x40 SWAP1 KECCAK256 SLOAD PUSH1 0xFF AND SWAP1 JUMP JUMPDEST PUSH2 0x12B PUSH2 0x1F9 CALLDATASIZE PUSH1 0x4 PUSH2 0x9FC JUMP JUMPDEST PUSH2 0x739 JUMP JUMPDEST PUSH2 0x103 PUSH2 0x20C CALLDATASIZE PUSH1 0x4 PUSH2 0x9FC JUMP JUMPDEST PUSH2 0x89E JUMP JUMPDEST PUSH2 0x23A PUSH2 0x21F CALLDATASIZE PUSH1 0x4 PUSH2 0x9C0 JUMP JUMPDEST POP POP PUSH1 0x40 DUP1 MLOAD PUSH1 0x0 DUP1 DUP3 MSTORE PUSH1 0x20 DUP3 ADD SWAP1 DUP2 MSTORE DUP2 DUP4 ADD SWAP1 SWAP3 MSTORE SWAP2 JUMP JUMPDEST PUSH1 0x40 MLOAD PUSH2 0x10F SWAP3 SWAP2 SWAP1 PUSH2 0xA15 JUMP JUMPDEST PUSH2 0x12B PUSH2 0x256 CALLDATASIZE PUSH1 0x4 PUSH2 0xA99 JUMP JUMPDEST PUSH2 0x8C9 JUMP JUMPDEST DUP1 DUP1 PUSH1 0x0 SLOAD GT PUSH2 0x286 JUMPI PUSH1 0x40 MLOAD PUSH3 0x461BCD PUSH1 0xE5 SHL DUP2 MSTORE PUSH1 0x4 ADD PUSH2 0x27D SWAP1 PUSH2 0xABB JUMP JUMPDEST PUSH1 0x40 MLOAD DUP1 SWAP2 SUB SWAP1 REVERT JUMPDEST PUSH1 0x0 DUP3 DUP2 MSTORE PUSH1 0x3 PUSH1 0x20 MSTORE PUSH1 0x40 SWAP1 KECCAK256 SLOAD PUSH1 0x1 PUSH1 0x1 PUSH1 0xA0 SHL SUB AND CALLER DUP2 EQ PUSH2 0x2BD JUMPI PUSH1 0x40 MLOAD PUSH3 0x461BCD PUSH1 0xE5 SHL DUP2 MSTORE PUSH1 0x4 ADD PUSH2 0x27D SWAP1 PUSH2 0xAEB JUMP JUMPDEST PUSH1 0x0 DUP4 DUP2 MSTORE PUSH1 0x3 PUSH1 0x20 DUP2 SWAP1 MSTORE PUSH1 0x40 DUP3 KECCAK256 PUSH1 0x2 ADD SLOAD PUSH1 0xFF AND SWAP1 DUP2 GT ISZERO PUSH2 0x2E4 JUMPI PUSH2 0x2E4 PUSH2 0xB22 JUMP JUMPDEST EQ PUSH2 0x331 JUMPI PUSH1 0x40 MLOAD PUSH3 0x461BCD PUSH1 0xE5 SHL DUP2 MSTORE PUSH1 0x20 PUSH1 0x4 DUP3 ADD MSTORE PUSH1 0x18 PUSH1 0x24 DUP3 ADD MSTORE PUSH32 0x5468652073746174652073686F756C642062652049646C650000000000000000 PUSH1 0x44 DUP3 ADD MSTORE PUSH1 0x64 ADD PUSH2 0x27D JUMP JUMPDEST POP POP PUSH1 0x0 SWAP1 DUP2 MSTORE PUSH1 0x3 PUSH1 0x20 MSTORE PUSH1 0x40 SWAP1 KECCAK256 PUSH1 0x2 ADD DUP1 SLOAD PUSH1 0xFF NOT AND PUSH1 0x1 OR SWAP1 SSTORE JUMP JUMPDEST PUSH1 0x0 DUP2 DUP1 PUSH1 0x0 SLOAD GT PUSH2 0x375 JUMPI PUSH1 0x40 MLOAD PUSH3 0x461BCD PUSH1 0xE5 SHL DUP2 MSTORE PUSH1 0x4 ADD PUSH2 0x27D SWAP1 PUSH2 0xABB JUMP JUMPDEST PUSH1 0x2 JUMPDEST PUSH1 0x0 DUP5 DUP2 MSTORE PUSH1 0x3 PUSH1 0x20 DUP2 SWAP1 MSTORE PUSH1 0x40 SWAP1 SWAP2 KECCAK256 PUSH1 0x2 ADD SLOAD PUSH1 0xFF AND SWAP1 DUP2 GT ISZERO PUSH2 0x3A0 JUMPI PUSH2 0x3A0 PUSH2 0xB22 JUMP JUMPDEST EQ SWAP2 POP JUMPDEST POP SWAP2 SWAP1 POP JUMP JUMPDEST PUSH1 0x0 DUP2 DUP1 PUSH1 0x0 SLOAD GT PUSH2 0x3CE JUMPI PUSH1 0x40 MLOAD PUSH3 0x461BCD PUSH1 0xE5 SHL DUP2 MSTORE PUSH1 0x4 ADD PUSH2 0x27D SWAP1 PUSH2 0xABB JUMP JUMPDEST PUSH1 0x1 PUSH2 0x378 JUMP JUMPDEST PUSH1 0x0 DUP2 DUP1 PUSH1 0x0 SLOAD GT PUSH2 0x3F9 JUMPI PUSH1 0x40 MLOAD PUSH3 0x461BCD PUSH1 0xE5 SHL DUP2 MSTORE PUSH1 0x4 ADD PUSH2 0x27D SWAP1 PUSH2 0xABB JUMP JUMPDEST PUSH1 0x0 DUP2 DUP2 MSTORE PUSH1 0x1 PUSH1 0x20 MSTORE PUSH1 0x40 SWAP1 KECCAK256 SLOAD PUSH1 0xFF AND PUSH2 0x448 JUMPI PUSH1 0x40 MLOAD PUSH3 0x461BCD PUSH1 0xE5 SHL DUP2 MSTORE PUSH1 0x20 PUSH1 0x4 DUP3 ADD MSTORE PUSH1 0xE PUSH1 0x24 DUP3 ADD MSTORE PUSH14 0x496E64657820696E616374697665 PUSH1 0x90 SHL PUSH1 0x44 DUP3 ADD MSTORE PUSH1 0x64 ADD PUSH2 0x27D JUMP JUMPDEST POP POP PUSH1 0x0 SWAP1 DUP2 MSTORE PUSH1 0x2 PUSH1 0x20 MSTORE PUSH1 0x40 SWAP1 KECCAK256 SLOAD SWAP1 JUMP JUMPDEST PUSH1 0x0 DUP2 DUP1 PUSH1 0x0 SLOAD GT PUSH2 0x480 JUMPI PUSH1 0x40 MLOAD PUSH3 0x461BCD PUSH1 0xE5 SHL DUP2 MSTORE PUSH1 0x4 ADD PUSH2 0x27D SWAP1 PUSH2 0xABB JUMP JUMPDEST PUSH1 0x0 DUP4 DUP2 MSTORE PUSH1 0x3 PUSH1 0x20 DUP2 SWAP1 MSTORE PUSH1 0x40 DUP3 KECCAK256 PUSH1 0x2 ADD SLOAD PUSH1 0xFF AND SWAP1 DUP2 GT ISZERO PUSH2 0x4A7 JUMPI PUSH2 0x4A7 PUSH2 0xB22 JUMP JUMPDEST SUB PUSH2 0x4BB JUMPI PUSH4 0x49646C65 PUSH1 0xE0 SHL SWAP2 POP PUSH2 0x3A4 JUMP JUMPDEST PUSH1 0x1 PUSH1 0x0 DUP5 DUP2 MSTORE PUSH1 0x3 PUSH1 0x20 DUP2 SWAP1 MSTORE PUSH1 0x40 SWAP1 SWAP2 KECCAK256 PUSH1 0x2 ADD SLOAD PUSH1 0xFF AND SWAP1 DUP2 GT ISZERO PUSH2 0x4E5 JUMPI PUSH2 0x4E5 PUSH2 0xB22 JUMP JUMPDEST SUB PUSH2 0x4FF JUMPI PUSH10 0x5375626D697474696E67 PUSH1 0xB0 SHL SWAP2 POP PUSH2 0x3A4 JUMP JUMPDEST PUSH1 0x2 PUSH1 0x0 DUP5 DUP2 MSTORE PUSH1 0x3 PUSH1 0x20 DUP2 SWAP1 MSTORE PUSH1 0x40 SWAP1 SWAP2 KECCAK256 PUSH1 0x2 ADD SLOAD PUSH1 0xFF AND SWAP1 DUP2 GT ISZERO PUSH2 0x529 JUMPI PUSH2 0x529 PUSH2 0xB22 JUMP JUMPDEST SUB PUSH2 0x544 JUMPI PUSH11 0x446F776E6C6F6164696E67 PUSH1 0xA8 SHL SWAP2 POP PUSH2 0x3A4 JUMP JUMPDEST PUSH1 0x0 DUP4 DUP2 MSTORE PUSH1 0x3 PUSH1 0x20 DUP2 SWAP1 MSTORE PUSH1 0x40 SWAP1 SWAP2 KECCAK256 PUSH1 0x2 ADD SLOAD PUSH1 0xFF AND DUP2 DUP2 GT ISZERO PUSH2 0x56C JUMPI PUSH2 0x56C PUSH2 0xB22 JUMP JUMPDEST SUB PUSH2 0x584 JUMPI PUSH8 0x119A5B9A5CDA1959 PUSH1 0xC2 SHL SWAP2 POP PUSH2 0x3A4 JUMP JUMPDEST PUSH1 0x40 MLOAD PUSH3 0x461BCD PUSH1 0xE5 SHL DUP2 MSTORE PUSH1 0x20 PUSH1 0x4 DUP3 ADD MSTORE PUSH1 0x12 PUSH1 0x24 DUP3 ADD MSTORE PUSH18 0x556E7265636F676E697A6564207374617465 PUSH1 0x70 SHL PUSH1 0x44 DUP3 ADD MSTORE PUSH1 0x64 ADD PUSH2 0x27D JUMP JUMPDEST PUSH1 0x0 DUP3 DUP2 MSTORE PUSH1 0x3 PUSH1 0x20 DUP2 DUP2 MSTORE PUSH1 0x40 DUP1 DUP5 KECCAK256 DUP2 MLOAD PUSH1 0x60 DUP2 ADD DUP4 MSTORE DUP2 SLOAD PUSH1 0x1 PUSH1 0x1 PUSH1 0xA0 SHL SUB AND DUP2 MSTORE PUSH1 0x1 DUP3 ADD SLOAD SWAP4 DUP2 ADD SWAP4 SWAP1 SWAP4 MSTORE PUSH1 0x2 DUP2 ADD SLOAD DUP6 SWAP5 DUP6 SWAP5 DUP6 SWAP5 SWAP1 SWAP4 SWAP3 SWAP1 DUP5 ADD SWAP2 PUSH1 0xFF SWAP1 SWAP2 AND SWAP1 DUP2 GT ISZERO PUSH2 0x61A JUMPI PUSH2 0x61A PUSH2 0xB22 JUMP JUMPDEST PUSH1 0x3 DUP2 GT ISZERO PUSH2 0x62B JUMPI PUSH2 0x62B PUSH2 0xB22 JUMP JUMPDEST SWAP1 MSTORE POP SWAP1 POP PUSH1 0x0 DUP1 PUSH1 0x0 DUP9 DUP2 MSTORE PUSH1 0x3 PUSH1 0x20 DUP2 SWAP1 MSTORE PUSH1 0x40 SWAP1 SWAP2 KECCAK256 PUSH1 0x2 ADD SLOAD PUSH1 0xFF AND SWAP1 DUP2 GT ISZERO PUSH2 0x65B JUMPI PUSH2 0x65B PUSH2 0xB22 JUMP JUMPDEST SUB PUSH2 0x66A JUMPI POP PUSH4 0x49646C65 PUSH1 0xE0 SHL JUMPDEST PUSH1 0x1 PUSH1 0x0 DUP9 DUP2 MSTORE PUSH1 0x3 PUSH1 0x20 DUP2 SWAP1 MSTORE PUSH1 0x40 SWAP1 SWAP2 KECCAK256 PUSH1 0x2 ADD SLOAD PUSH1 0xFF AND SWAP1 DUP2 GT ISZERO PUSH2 0x694 JUMPI PUSH2 0x694 PUSH2 0xB22 JUMP JUMPDEST SUB PUSH2 0x6A9 JUMPI POP PUSH10 0x5375626D697474696E67 PUSH1 0xB0 SHL JUMPDEST PUSH1 0x2 PUSH1 0x0 DUP9 DUP2 MSTORE PUSH1 0x3 PUSH1 0x20 DUP2 SWAP1 MSTORE PUSH1 0x40 SWAP1 SWAP2 KECCAK256 PUSH1 0x2 ADD SLOAD PUSH1 0xFF AND SWAP1 DUP2 GT ISZERO PUSH2 0x6D3 JUMPI PUSH2 0x6D3 PUSH2 0xB22 JUMP JUMPDEST SUB PUSH2 0x6E9 JUMPI POP PUSH11 0x446F776E6C6F6164696E67 PUSH1 0xA8 SHL JUMPDEST PUSH1 0x0 DUP8 DUP2 MSTORE PUSH1 0x3 PUSH1 0x20 DUP2 SWAP1 MSTORE PUSH1 0x40 SWAP1 SWAP2 KECCAK256 PUSH1 0x2 ADD SLOAD PUSH1 0xFF AND DUP2 DUP2 GT ISZERO PUSH2 0x711 JUMPI PUSH2 0x711 PUSH2 0xB22 JUMP JUMPDEST SUB PUSH2 0x724 JUMPI POP PUSH8 0x119A5B9A5CDA1959 PUSH1 0xC2 SHL JUMPDEST DUP2 MLOAD PUSH1 0x20 SWAP1 SWAP3 ADD MLOAD SWAP2 SWAP8 SWAP2 SWAP7 POP SWAP5 POP SWAP3 POP POP POP JUMP JUMPDEST DUP1 DUP1 PUSH1 0x0 SLOAD GT PUSH2 0x75B JUMPI PUSH1 0x40 MLOAD PUSH3 0x461BCD PUSH1 0xE5 SHL DUP2 MSTORE PUSH1 0x4 ADD PUSH2 0x27D SWAP1 PUSH2 0xABB JUMP JUMPDEST PUSH1 0x0 DUP3 DUP2 MSTORE PUSH1 0x3 PUSH1 0x20 MSTORE PUSH1 0x40 SWAP1 KECCAK256 SLOAD PUSH1 0x1 PUSH1 0x1 PUSH1 0xA0 SHL SUB AND CALLER DUP2 EQ PUSH2 0x792 JUMPI PUSH1 0x40 MLOAD PUSH3 0x461BCD PUSH1 0xE5 SHL DUP2 MSTORE PUSH1 0x4 ADD PUSH2 0x27D SWAP1 PUSH2 0xAEB JUMP JUMPDEST PUSH1 0x2 PUSH1 0x0 DUP5 DUP2 MSTORE PUSH1 0x3 PUSH1 0x20 DUP2 SWAP1 MSTORE PUSH1 0x40 SWAP1 SWAP2 KECCAK256 PUSH1 0x2 ADD SLOAD PUSH1 0xFF AND SWAP1 DUP2 GT ISZERO PUSH2 0x7BC JUMPI PUSH2 0x7BC PUSH2 0xB22 JUMP JUMPDEST EQ PUSH2 0x809 JUMPI PUSH1 0x40 MLOAD PUSH3 0x461BCD PUSH1 0xE5 SHL DUP2 MSTORE PUSH1 0x20 PUSH1 0x4 DUP3 ADD MSTORE PUSH1 0x1F PUSH1 0x24 DUP3 ADD MSTORE PUSH32 0x5468652073746174652073686F756C6420626520446F776E6C6F6164696E6700 PUSH1 0x44 DUP3 ADD MSTORE PUSH1 0x64 ADD PUSH2 0x27D JUMP JUMPDEST PUSH1 0x0 DUP4 DUP2 MSTORE PUSH1 0x3 PUSH1 0x20 DUP2 DUP2 MSTORE PUSH1 0x40 DUP1 DUP5 KECCAK256 PUSH1 0x2 SWAP1 DUP2 ADD DUP1 SLOAD PUSH1 0xFF NOT SWAP1 DUP2 AND DUP7 OR DUP3 SSTORE PUSH1 0x1 DUP6 MSTORE DUP4 DUP8 KECCAK256 DUP1 SLOAD SWAP1 SWAP2 AND SWAP1 SSTORE SWAP1 DUP4 MSTORE SWAP1 DUP5 KECCAK256 SWAP4 SWAP1 SWAP4 SSTORE DUP2 SWAP1 MSTORE SWAP1 SLOAD PUSH32 0xBDD51EB9FB70BB6E48865170E5931F9A9AD837DD15A4749BE5EB0DE6E6458561 SWAP2 DUP6 SWAP2 PUSH1 0xFF AND SWAP1 DUP2 GT ISZERO PUSH2 0x87F JUMPI PUSH2 0x87F PUSH2 0xB22 JUMP JUMPDEST PUSH1 0x40 DUP1 MLOAD SWAP3 DUP4 MSTORE PUSH1 0xFF SWAP1 SWAP2 AND PUSH1 0x20 DUP4 ADD MSTORE ADD PUSH1 0x40 MLOAD DUP1 SWAP2 SUB SWAP1 LOG1 POP POP POP JUMP JUMPDEST PUSH1 0x0 DUP2 DUP1 PUSH1 0x0 SLOAD GT PUSH2 0x8C2 JUMPI PUSH1 0x40 MLOAD PUSH3 0x461BCD PUSH1 0xE5 SHL DUP2 MSTORE PUSH1 0x4 ADD PUSH2 0x27D SWAP1 PUSH2 0xABB JUMP JUMPDEST PUSH1 0x3 PUSH2 0x378 JUMP JUMPDEST DUP2 DUP1 PUSH1 0x0 SLOAD GT PUSH2 0x8EB JUMPI PUSH1 0x40 MLOAD PUSH3 0x461BCD PUSH1 0xE5 SHL DUP2 MSTORE PUSH1 0x4 ADD PUSH2 0x27D SWAP1 PUSH2 0xABB JUMP JUMPDEST PUSH1 0x0 DUP4 DUP2 MSTORE PUSH1 0x3 PUSH1 0x20 MSTORE PUSH1 0x40 SWAP1 KECCAK256 SLOAD PUSH1 0x1 PUSH1 0x1 PUSH1 0xA0 SHL SUB AND CALLER DUP2 EQ PUSH2 0x922 JUMPI PUSH1 0x40 MLOAD PUSH3 0x461BCD PUSH1 0xE5 SHL DUP2 MSTORE PUSH1 0x4 ADD PUSH2 0x27D SWAP1 PUSH2 0xAEB JUMP JUMPDEST PUSH1 0x1 PUSH1 0x0 DUP6 DUP2 MSTORE PUSH1 0x3 PUSH1 0x20 DUP2 SWAP1 MSTORE PUSH1 0x40 SWAP1 SWAP2 KECCAK256 PUSH1 0x2 ADD SLOAD PUSH1 0xFF AND SWAP1 DUP2 GT ISZERO PUSH2 0x94C JUMPI PUSH2 0x94C PUSH2 0xB22 JUMP JUMPDEST EQ PUSH2 0x999 JUMPI PUSH1 0x40 MLOAD PUSH3 0x461BCD PUSH1 0xE5 SHL DUP2 MSTORE PUSH1 0x20 PUSH1 0x4 DUP3 ADD MSTORE PUSH1 0x1E PUSH1 0x24 DUP3 ADD MSTORE PUSH32 0x5468652073746174652073686F756C64206265205375626D697474696E670000 PUSH1 0x44 DUP3 ADD MSTORE PUSH1 0x64 ADD PUSH2 0x27D JUMP JUMPDEST POP POP PUSH1 0x0 SWAP2 DUP3 MSTORE PUSH1 0x3 PUSH1 0x20 MSTORE PUSH1 0x40 SWAP1 SWAP2 KECCAK256 PUSH1 0x2 DUP1 DUP3 ADD DUP1 SLOAD PUSH1 0xFF NOT AND SWAP1 SWAP2 OR SWAP1 SSTORE PUSH1 0x1 ADD SSTORE JUMP JUMPDEST PUSH1 0x0 DUP1 PUSH1 0x40 DUP4 DUP6 SUB SLT ISZERO PUSH2 0x9D3 JUMPI PUSH1 0x0 DUP1 REVERT JUMPDEST DUP3 CALLDATALOAD SWAP2 POP PUSH1 0x20 DUP4 ADD CALLDATALOAD PUSH1 0x1 PUSH1 0x1 PUSH1 0xA0 SHL SUB DUP2 AND DUP2 EQ PUSH2 0x9F1 JUMPI PUSH1 0x0 DUP1 REVERT JUMPDEST DUP1 SWAP2 POP POP SWAP3 POP SWAP3 SWAP1 POP JUMP JUMPDEST PUSH1 0x0 PUSH1 0x20 DUP3 DUP5 SUB SLT ISZERO PUSH2 0xA0E JUMPI PUSH1 0x0 DUP1 REVERT JUMPDEST POP CALLDATALOAD SWAP2 SWAP1 POP JUMP JUMPDEST PUSH1 0x40 DUP1 DUP3 MSTORE DUP4 MLOAD SWAP1 DUP3 ADD DUP2 SWAP1 MSTORE PUSH1 0x0 SWAP1 PUSH1 0x20 SWAP1 PUSH1 0x60 DUP5 ADD SWAP1 DUP3 DUP8 ADD DUP5 JUMPDEST DUP3 DUP2 LT ISZERO PUSH2 0xA57 JUMPI DUP2 MLOAD PUSH1 0x1 PUSH1 0x1 PUSH1 0xA0 SHL SUB AND DUP5 MSTORE SWAP3 DUP5 ADD SWAP3 SWAP1 DUP5 ADD SWAP1 PUSH1 0x1 ADD PUSH2 0xA32 JUMP JUMPDEST POP POP POP DUP4 DUP2 SUB DUP3 DUP6 ADD MSTORE DUP5 MLOAD DUP1 DUP3 MSTORE DUP6 DUP4 ADD SWAP2 DUP4 ADD SWAP1 PUSH1 0x0 JUMPDEST DUP2 DUP2 LT ISZERO PUSH2 0xA8C JUMPI DUP4 MLOAD DUP4 MSTORE SWAP3 DUP5 ADD SWAP3 SWAP2 DUP5 ADD SWAP2 PUSH1 0x1 ADD PUSH2 0xA70 JUMP JUMPDEST POP SWAP1 SWAP8 SWAP7 POP POP POP POP POP POP POP JUMP JUMPDEST PUSH1 0x0 DUP1 PUSH1 0x40 DUP4 DUP6 SUB SLT ISZERO PUSH2 0xAAC JUMPI PUSH1 0x0 DUP1 REVERT JUMPDEST POP POP DUP1 CALLDATALOAD SWAP3 PUSH1 0x20 SWAP1 SWAP2 ADD CALLDATALOAD SWAP2 POP JUMP JUMPDEST PUSH1 0x20 DUP1 DUP3 MSTORE PUSH1 0x16 SWAP1 DUP3 ADD MSTORE PUSH22 0x125B99195E081B9BDD081A5B9CDD185B9D1A585D1959 PUSH1 0x52 SHL PUSH1 0x40 DUP3 ADD MSTORE PUSH1 0x60 ADD SWAP1 JUMP JUMPDEST PUSH1 0x20 DUP1 DUP3 MSTORE PUSH1 0x18 SWAP1 DUP3 ADD MSTORE PUSH32 0x43616E6E6F742062652063616C6C656420627920757365720000000000000000 PUSH1 0x40 DUP3 ADD MSTORE PUSH1 0x60 ADD SWAP1 JUMP JUMPDEST PUSH4 0x4E487B71 PUSH1 0xE0 SHL PUSH1 0x0 MSTORE PUSH1 0x21 PUSH1 0x4 MSTORE PUSH1 0x24 PUSH1 0x0 REVERT INVALID LOG2 PUSH5 0x6970667358 0x22 SLT KECCAK256 PUSH17 0x8F1FF570D1E3618FDF4386331AB2F5C5 0xB2 EXTCODEHASH PUSH25 0x582AC5AA45E0F95790F70164736F6C634300080F0033000000 "
    },
    "gasEstimates": {
      "creation": {
        "codeDepositCost": "585200",
        "executionCost": "infinite",
        "totalCost": "infinite"
      },
      "external": {
        "claimDownloading(uint256,bytes32)": "53321",
        "claimFinished(uint256)": "63965",
        "claimSubmitting(uint256)": "31109",
        "currentIndex()": "2384",
        "getCurrentState(uint256)": "11422",
        "getNonce(uint256)": "6883",
        "getState(uint256,address)": "16090",
        "getSubInstances(uint256,address)": "711",
        "isActive(uint256)": "2506",
        "isConcerned(uint256,address)": "2547",
        "stateIsDownloading(uint256)": "4686",
        "stateIsFinished(uint256)": "4696",
        "stateIsSubmitting(uint256)": "4719"
      },
      "internal": {
        "clearInstance(uint256)": "infinite"
      }
    },
    "methodIdentifiers": {
      "claimDownloading(uint256,bytes32)": "ef068ba4",
      "claimFinished(uint256)": "97e33a02",
      "claimSubmitting(uint256)": "0f3887b4",
      "currentIndex()": "26987b60",
      "getCurrentState(uint256)": "5748c130",
      "getNonce(uint256)": "3d46b819",
      "getState(uint256,address)": "73df1612",
      "getSubInstances(uint256,address)": "c526656c",
      "isActive(uint256)": "82afd23b",
      "isConcerned(uint256,address)": "01ff62ab",
      "stateIsDownloading(uint256)": "155d31da",
      "stateIsFinished(uint256)": "9e820187",
      "stateIsSubmitting(uint256)": "15d84dc2"
    }
  },
  "storageLayout": {
    "storage": [
      {
        "astId": 38,
        "contract": "contracts/LoggerTestInstantiator.sol:LoggerTestInstantiator",
        "label": "currentIndex",
        "offset": 0,
        "slot": "0",
        "type": "t_uint256"
      },
      {
        "astId": 42,
        "contract": "contracts/LoggerTestInstantiator.sol:LoggerTestInstantiator",
        "label": "active",
        "offset": 0,
        "slot": "1",
        "type": "t_mapping(t_uint256,t_bool)"
      },
      {
        "astId": 46,
        "contract": "contracts/LoggerTestInstantiator.sol:LoggerTestInstantiator",
        "label": "nonce",
        "offset": 0,
        "slot": "2",
        "type": "t_mapping(t_uint256,t_uint256)"
      },
      {
        "astId": 1075,
        "contract": "contracts/LoggerTestInstantiator.sol:LoggerTestInstantiator",
        "label": "instance",
        "offset": 0,
        "slot": "3",
        "type": "t_mapping(t_uint256,t_struct(LoggerTestCtx)1070_storage)"
      }
    ],
    "types": {
      "t_address": {
        "encoding": "inplace",
        "label": "address",
        "numberOfBytes": "20"
      },
      "t_bool": {
        "encoding": "inplace",
        "label": "bool",
        "numberOfBytes": "1"
      },
      "t_bytes32": {
        "encoding": "inplace",
        "label": "bytes32",
        "numberOfBytes": "32"
      },
      "t_enum(state)1557": {
        "encoding": "inplace",
        "label": "enum LoggerTestInterface.state",
        "numberOfBytes": "1"
      },
      "t_mapping(t_uint256,t_bool)": {
        "encoding": "mapping",
        "key": "t_uint256",
        "label": "mapping(uint256 => bool)",
        "numberOfBytes": "32",
        "value": "t_bool"
      },
      "t_mapping(t_uint256,t_struct(LoggerTestCtx)1070_storage)": {
        "encoding": "mapping",
        "key": "t_uint256",
        "label": "mapping(uint256 => struct LoggerTestInstantiator.LoggerTestCtx)",
        "numberOfBytes": "32",
        "value": "t_struct(LoggerTestCtx)1070_storage"
      },
      "t_mapping(t_uint256,t_uint256)": {
        "encoding": "mapping",
        "key": "t_uint256",
        "label": "mapping(uint256 => uint256)",
        "numberOfBytes": "32",
        "value": "t_uint256"
      },
      "t_struct(LoggerTestCtx)1070_storage": {
        "encoding": "inplace",
        "label": "struct LoggerTestInstantiator.LoggerTestCtx",
        "members": [
          {
            "astId": 1064,
            "contract": "contracts/LoggerTestInstantiator.sol:LoggerTestInstantiator",
            "label": "user",
            "offset": 0,
            "slot": "0",
            "type": "t_address"
          },
          {
            "astId": 1066,
            "contract": "contracts/LoggerTestInstantiator.sol:LoggerTestInstantiator",
            "label": "submittedHash",
            "offset": 0,
            "slot": "1",
            "type": "t_bytes32"
          },
          {
            "astId": 1069,
            "contract": "contracts/LoggerTestInstantiator.sol:LoggerTestInstantiator",
            "label": "currentState",
            "offset": 0,
            "slot": "2",
            "type": "t_enum(state)1557"
          }
        ],
        "numberOfBytes": "96"
      },
      "t_uint256": {
        "encoding": "inplace",
        "label": "uint256",
        "numberOfBytes": "32"
      }
    }
  },
  "userdoc": {
    "kind": "user",
    "methods": {
      "claimDownloading(uint256,bytes32)": {
        "notice": "Claim Downloading for the logger test."
      },
      "claimFinished(uint256)": {
        "notice": "Claim Finished for the logger test."
      },
      "claimSubmitting(uint256)": {
        "notice": "Claim Submitting for the logger test."
      }
    },
    "version": 1
  }
}