{
  "address": "0x0e38b65ad9f28209BF646f876E83afa2038187e3",
  "abi": [
    {
      "inputs": [
        {
          "internalType": "address",
          "name": "_user",
          "type": "address"
        }
      ],
      "stateMutability": "nonpayable",
      "type": "constructor"
    },
    {
      "anonymous": false,
      "inputs": [
        {
          "indexed": false,
          "internalType": "uint256",
          "name": "_index",
          "type": "uint256"
        },
        {
          "indexed": false,
          "internalType": "address",
          "name": "_user",
          "type": "address"
        }
      ],
      "name": "LoggerTestCreated",
      "type": "event"
    },
    {
      "anonymous": false,
      "inputs": [
        {
          "indexed": false,
          "internalType": "uint256",
          "name": "_index",
          "type": "uint256"
        },
        {
          "indexed": false,
          "internalType": "uint8",
          "name": "_state",
          "type": "uint8"
        }
      ],
      "name": "LoggerTestFinished",
      "type": "event"
    },
    {
      "inputs": [
        {
          "internalType": "uint256",
          "name": "_index",
          "type": "uint256"
        },
        {
          "internalType": "bytes32",
          "name": "_submittedHash",
          "type": "bytes32"
        }
      ],
      "name": "claimDownloading",
      "outputs": [],
      "stateMutability": "nonpayable",
      "type": "function"
    },
    {
      "inputs": [
        {
          "internalType": "uint256",
          "name": "_index",
          "type": "uint256"
        }
      ],
      "name": "claimFinished",
      "outputs": [],
      "stateMutability": "nonpayable",
      "type": "function"
    },
    {
      "inputs": [
        {
          "internalType": "uint256",
          "name": "_index",
          "type": "uint256"
        }
      ],
      "name": "claimSubmitting",
      "outputs": [],
      "stateMutability": "nonpayable",
      "type": "function"
    },
    {
      "inputs": [],
      "name": "currentIndex",
      "outputs": [
        {
          "internalType": "uint256",
          "name": "",
          "type": "uint256"
        }
      ],
      "stateMutability": "view",
      "type": "function"
    },
    {
      "inputs": [
        {
          "internalType": "uint256",
          "name": "_index",
          "type": "uint256"
        }
      ],
      "name": "deactivate",
      "outputs": [],
      "stateMutability": "nonpayable",
      "type": "function"
    },
    {
      "inputs": [
        {
          "internalType": "uint256",
          "name": "_index",
          "type": "uint256"
        }
      ],
      "name": "getCurrentState",
      "outputs": [
        {
          "internalType": "bytes32",
          "name": "",
          "type": "bytes32"
        }
      ],
      "stateMutability": "view",
      "type": "function"
    },
    {
      "inputs": [
        {
          "internalType": "uint256",
          "name": "_index",
          "type": "uint256"
        }
      ],
      "name": "getNonce",
      "outputs": [
        {
          "internalType": "uint256",
          "name": "currentNonce",
          "type": "uint256"
        }
      ],
      "stateMutability": "view",
      "type": "function"
    },
    {
      "inputs": [
        {
          "internalType": "uint256",
          "name": "_index",
          "type": "uint256"
        },
        {
          "internalType": "address",
          "name": "",
          "type": "address"
        }
      ],
      "name": "getState",
      "outputs": [
        {
          "internalType": "address",
          "name": "_user",
          "type": "address"
        },
        {
          "internalType": "bytes32",
          "name": "_hash",
          "type": "bytes32"
        },
        {
          "internalType": "bytes32",
          "name": "_currentState",
          "type": "bytes32"
        }
      ],
      "stateMutability": "view",
      "type": "function"
    },
    {
      "inputs": [
        {
          "internalType": "uint256",
          "name": "",
          "type": "uint256"
        },
        {
          "internalType": "address",
          "name": "",
          "type": "address"
        }
      ],
      "name": "getSubInstances",
      "outputs": [
        {
          "internalType": "address[]",
          "name": "",
          "type": "address[]"
        },
        {
          "internalType": "uint256[]",
          "name": "",
          "type": "uint256[]"
        }
      ],
      "stateMutability": "pure",
      "type": "function"
    },
    {
      "inputs": [
        {
          "internalType": "uint256",
          "name": "_index",
          "type": "uint256"
        }
      ],
      "name": "isActive",
      "outputs": [
        {
          "internalType": "bool",
          "name": "",
          "type": "bool"
        }
      ],
      "stateMutability": "view",
      "type": "function"
    },
    {
      "inputs": [
        {
          "internalType": "uint256",
          "name": "_index",
          "type": "uint256"
        },
        {
          "internalType": "address",
          "name": "_user",
          "type": "address"
        }
      ],
      "name": "isConcerned",
      "outputs": [
        {
          "internalType": "bool",
          "name": "",
          "type": "bool"
        }
      ],
      "stateMutability": "view",
      "type": "function"
    },
    {
      "inputs": [
        {
          "internalType": "uint256",
          "name": "_index",
          "type": "uint256"
        }
      ],
      "name": "stateIsDownloading",
      "outputs": [
        {
          "internalType": "bool",
          "name": "",
          "type": "bool"
        }
      ],
      "stateMutability": "view",
      "type": "function"
    },
    {
      "inputs": [
        {
          "internalType": "uint256",
          "name": "_index",
          "type": "uint256"
        }
      ],
      "name": "stateIsFinished",
      "outputs": [
        {
          "internalType": "bool",
          "name": "",
          "type": "bool"
        }
      ],
      "stateMutability": "view",
      "type": "function"
    },
    {
      "inputs": [
        {
          "internalType": "uint256",
          "name": "_index",
          "type": "uint256"
        }
      ],
      "name": "stateIsSubmitting",
      "outputs": [
        {
          "internalType": "bool",
          "name": "",
          "type": "bool"
        }
      ],
      "stateMutability": "view",
      "type": "function"
    }
  ],
  "transactionHash": "0x70804bb880488d75d0bcc33949c408bfb2871330be90e9b0f3ab34d583fe73cc",
  "args": [
    "0x18930e8a66a1DbE21D00581216789AAB7460Afd0"
  ],
  "solcInputHash": "55c414c18e071e98d0825a8118fb45c2",
  "bytecode": "0x60806040526000805534801561001457600080fd5b50604051610e57380380610e578339818101604052602081101561003757600080fd5b50516000808055808052600360209081527f3617319a054d772f909f7c479a2cebe5066e836a939412e32403c99029b92eff80546001600160a01b0319166001600160a01b03851690811782557f3617319a054d772f909f7c479a2cebe5066e836a939412e32403c99029b92f01805460ff191690556040805194855292840152815190927f77a232d0b541d1b39d33a99d472f21d566b9eca98e550634b0154ffda4f8592592908290030190a150506000805481526001602081905260408220805460ff1916821790558154019055610d41806101166000396000f3fe608060405234801561001057600080fd5b50600436106100ea5760003560e01c806373df16121161008c57806397e33a021161006657806397e33a021461026a5780639e82018714610287578063c526656c146102a4578063ef068ba414610369576100ea565b806373df1612146101dc57806382afd23b14610230578063916b9bef1461024d576100ea565b806315d84dc2116100c857806315d84dc21461016b57806326987b60146101885780633d46b819146101a25780635748c130146101bf576100ea565b806301ff62ab146100ef5780630f3887b41461012f578063155d31da1461014e575b600080fd5b61011b6004803603604081101561010557600080fd5b50803590602001356001600160a01b031661038c565b604080519115158252519081900360200190f35b61014c6004803603602081101561014557600080fd5b50356103ad565b005b61011b6004803603602081101561016457600080fd5b50356104ec565b61011b6004803603602081101561018157600080fd5b5035610562565b6101906105b0565b60408051918252519081900360200190f35b610190600480360360208110156101b857600080fd5b50356105b6565b610190600480360360208110156101d557600080fd5b503561065c565b610208600480360360408110156101f257600080fd5b50803590602001356001600160a01b03166107d5565b604080516001600160a01b039094168452602084019290925282820152519081900360600190f35b61011b6004803603602081101561024657600080fd5b5035610934565b61014c6004803603602081101561026357600080fd5b5035610949565b61014c6004803603602081101561028057600080fd5b503561096c565b61011b6004803603602081101561029d57600080fd5b5035610b1b565b6102d0600480360360408110156102ba57600080fd5b50803590602001356001600160a01b0316610b69565b604051808060200180602001838103835285818151815260200191508051906020019060200280838360005b838110156103145781810151838201526020016102fc565b50505050905001838103825284818151815260200191508051906020019060200280838360005b8381101561035357818101518382015260200161033b565b5050505090500194505050505060405180910390f35b61014c6004803603604081101561037f57600080fd5b5080359060200135610b84565b600091825260036020526040909120546001600160a01b0391821691161490565b8080600054116103f2576040805162461bcd60e51b81526020600482015260166024820152600080516020610cec833981519152604482015290519081900360640190fd5b6000828152600360205260409020546001600160a01b0316338114610459576040805162461bcd60e51b815260206004820152601860248201527721b0b73737ba1031329031b0b63632b210313c903ab9b2b960411b604482015290519081900360640190fd5b600083815260036020819052604082206002015460ff169081111561047a57fe5b146104cc576040805162461bcd60e51b815260206004820152601860248201527f5468652073746174652073686f756c642062652049646c650000000000000000604482015290519081900360640190fd5b50506000908152600360205260409020600201805460ff19166001179055565b6000818060005411610533576040805162461bcd60e51b81526020600482015260166024820152600080516020610cec833981519152604482015290519081900360640190fd5b60025b60008481526003602081905260409091206002015460ff169081111561055857fe5b1491505b50919050565b60008180600054116105a9576040805162461bcd60e51b81526020600482015260166024820152600080516020610cec833981519152604482015290519081900360640190fd5b6001610536565b60005481565b60008180600054116105fd576040805162461bcd60e51b81526020600482015260166024820152600080516020610cec833981519152604482015290519081900360640190fd5b61060681610934565b610648576040805162461bcd60e51b815260206004820152600e60248201526d496e64657820696e61637469766560901b604482015290519081900360640190fd5b505060009081526002602052604090205490565b60008180600054116106a3576040805162461bcd60e51b81526020600482015260166024820152600080516020610cec833981519152604482015290519081900360640190fd5b600083815260036020819052604082206002015460ff16908111156106c457fe5b14156106d9576349646c6560e01b915061055c565b600160008481526003602081905260409091206002015460ff16908111156106fd57fe5b141561071857695375626d697474696e6760b01b915061055c565b600260008481526003602081905260409091206002015460ff169081111561073c57fe5b1415610758576a446f776e6c6f6164696e6760a81b915061055c565b60008381526003602081905260409091206002015460ff168181111561077a57fe5b14156107935767119a5b9a5cda195960c21b915061055c565b6040805162461bcd60e51b8152602060048201526012602482015271556e7265636f676e697a656420737461746560701b604482015290519081900360640190fd5b60008060006107e2610ccd565b600086815260036020818152604092839020835160608101855281546001600160a01b031681526001820154928101929092526002810154919390929084019160ff169081111561082f57fe5b600381111561083a57fe5b905250905060008060008881526003602081905260409091206002015460ff169081111561086457fe5b141561087457506349646c6560e01b5b600160008881526003602081905260409091206002015460ff169081111561089857fe5b14156108ae5750695375626d697474696e6760b01b5b600260008881526003602081905260409091206002015460ff16908111156108d257fe5b14156108e957506a446f776e6c6f6164696e6760a81b5b60008781526003602081905260409091206002015460ff168181111561090b57fe5b141561091f575067119a5b9a5cda195960c21b5b81516020909201519197919650945092505050565b60009081526001602052604090205460ff1690565b6000908152600160209081526040808320805460ff191690556002909152812055565b8080600054116109b1576040805162461bcd60e51b81526020600482015260166024820152600080516020610cec833981519152604482015290519081900360640190fd5b6000828152600360205260409020546001600160a01b0316338114610a18576040805162461bcd60e51b815260206004820152601860248201527721b0b73737ba1031329031b0b63632b210313c903ab9b2b960411b604482015290519081900360640190fd5b600260008481526003602081905260409091206002015460ff1690811115610a3c57fe5b14610a8e576040805162461bcd60e51b815260206004820152601f60248201527f5468652073746174652073686f756c6420626520446f776e6c6f6164696e6700604482015290519081900360640190fd5b6000838152600360208190526040909120600201805460ff19169091179055610ab683610949565b6000838152600360208190526040909120600201547fbdd51eb9fb70bb6e48865170e5931f9a9ad837dd15a4749be5eb0de6e645856191859160ff1690811115610afc57fe5b6040805192835260ff90911660208301528051918290030190a1505050565b6000818060005411610b62576040805162461bcd60e51b81526020600482015260166024820152600080516020610cec833981519152604482015290519081900360640190fd5b6003610536565b50506040805160008082526020820190815281830190925291565b818060005411610bc9576040805162461bcd60e51b81526020600482015260166024820152600080516020610cec833981519152604482015290519081900360640190fd5b6000838152600360205260409020546001600160a01b0316338114610c30576040805162461bcd60e51b815260206004820152601860248201527721b0b73737ba1031329031b0b63632b210313c903ab9b2b960411b604482015290519081900360640190fd5b600160008581526003602081905260409091206002015460ff1690811115610c5457fe5b14610ca6576040805162461bcd60e51b815260206004820152601e60248201527f5468652073746174652073686f756c64206265205375626d697474696e670000604482015290519081900360640190fd5b50506000918252600360205260409091206002808201805460ff1916909117905560010155565b6040805160608101825260008082526020820181905290918201529056fe496e646578206e6f7420696e7374616e74696174656400000000000000000000a26469706673582212202c89bf25bb66066f4916696acaac7489cda4a26f27d74a6696b601c5bb5f62cc64736f6c63430007040033",
  "devdoc": {
    "kind": "dev",
    "methods": {},
    "version": 1
  },
  "userdoc": {
    "kind": "user",
    "methods": {
      "claimDownloading(uint256,bytes32)": {
        "notice": "Claim Downloading for the logger test."
      },
      "claimFinished(uint256)": {
        "notice": "Claim Finished for the logger test."
      },
      "claimSubmitting(uint256)": {
        "notice": "Claim Submitting for the logger test."
      }
    },
    "version": 1
  },
  "storageLayout": {
    "storage": [
      {
        "astId": 94,
        "contract": "contracts/LoggerTestInstantiator.sol:LoggerTestInstantiator",
        "label": "currentIndex",
        "offset": 0,
        "slot": "0",
        "type": "t_uint256"
      },
      {
        "astId": 98,
        "contract": "contracts/LoggerTestInstantiator.sol:LoggerTestInstantiator",
        "label": "active",
        "offset": 0,
        "slot": "1",
        "type": "t_mapping(t_uint256,t_bool)"
      },
      {
        "astId": 102,
        "contract": "contracts/LoggerTestInstantiator.sol:LoggerTestInstantiator",
        "label": "nonce",
        "offset": 0,
        "slot": "2",
        "type": "t_mapping(t_uint256,t_uint256)"
      },
      {
        "astId": 1082,
        "contract": "contracts/LoggerTestInstantiator.sol:LoggerTestInstantiator",
        "label": "instance",
        "offset": 0,
        "slot": "3",
        "type": "t_mapping(t_uint256,t_struct(LoggerTestCtx)1078_storage)"
      }
    ],
    "types": {
      "t_address": {
        "encoding": "inplace",
        "label": "address",
        "numberOfBytes": "20"
      },
      "t_bool": {
        "encoding": "inplace",
        "label": "bool",
        "numberOfBytes": "1"
      },
      "t_bytes32": {
        "encoding": "inplace",
        "label": "bytes32",
        "numberOfBytes": "32"
      },
      "t_enum(state)1562": {
        "encoding": "inplace",
        "label": "enum LoggerTestInterface.state",
        "numberOfBytes": "1"
      },
      "t_mapping(t_uint256,t_bool)": {
        "encoding": "mapping",
        "key": "t_uint256",
        "label": "mapping(uint256 => bool)",
        "numberOfBytes": "32",
        "value": "t_bool"
      },
      "t_mapping(t_uint256,t_struct(LoggerTestCtx)1078_storage)": {
        "encoding": "mapping",
        "key": "t_uint256",
        "label": "mapping(uint256 => struct LoggerTestInstantiator.LoggerTestCtx)",
        "numberOfBytes": "32",
        "value": "t_struct(LoggerTestCtx)1078_storage"
      },
      "t_mapping(t_uint256,t_uint256)": {
        "encoding": "mapping",
        "key": "t_uint256",
        "label": "mapping(uint256 => uint256)",
        "numberOfBytes": "32",
        "value": "t_uint256"
      },
      "t_struct(LoggerTestCtx)1078_storage": {
        "encoding": "inplace",
        "label": "struct LoggerTestInstantiator.LoggerTestCtx",
        "members": [
          {
            "astId": 1073,
            "contract": "contracts/LoggerTestInstantiator.sol:LoggerTestInstantiator",
            "label": "user",
            "offset": 0,
            "slot": "0",
            "type": "t_address"
          },
          {
            "astId": 1075,
            "contract": "contracts/LoggerTestInstantiator.sol:LoggerTestInstantiator",
            "label": "submittedHash",
            "offset": 0,
            "slot": "1",
            "type": "t_bytes32"
          },
          {
            "astId": 1077,
            "contract": "contracts/LoggerTestInstantiator.sol:LoggerTestInstantiator",
            "label": "currentState",
            "offset": 0,
            "slot": "2",
            "type": "t_enum(state)1562"
          }
        ],
        "numberOfBytes": "96"
      },
      "t_uint256": {
        "encoding": "inplace",
        "label": "uint256",
        "numberOfBytes": "32"
      }
    }
  }
}